:100000000C947D000C94A5000C94A5000C94A50004
:100010000C94A5000C94A5000C94A5000C942B0640
:100020000C94A5000C94A5000C94A5000C94A500BC
:100030000C94A5000C94A5000C94A5000C94A500AC
:100040000C94E1050C94A5000C94F8020C94D202D7
:100050000C94A5000C94A5000C94A5000C94A5008C
:100060000C94A5000C94A5000000000023002600BD
:10007000290000000000250028002B0004040404CF
:100080000404040402020202020203030303030342
:10009000010204081020408001020408102001021F
:1000A00004081020000000080002010000030407FB
:1000B00000000000000000000000FF00002AD50042
:1000C0000055AB00007FAB0000ABAB0000D5560085
:1000D00000FF00002AD5000055AB0000AA56000022
:1000E000FF000000D5002A00AB00550081007F0012
:1000F0005500AB002B00D500B81311241FBECFEF65
:10010000D8E0DEBFCDBF11E0A0E0B1E0ECE2FAE262
:1001100002C005900D92A03DB107D9F725E0A0EDF2
:10012000B1E001C01D92A733B207E1F710E0CDE7BF
:10013000D0E004C02197FE010E943A14CC37D107C9
:10014000C9F70E94B90A0C9414150C940000FC0124
:10015000918D828D981761F0828DDF01A80FB11DFE
:100160005D968C91928D9F5F9F73928F90E0089522
:100170008FEF9FEF0895FC01918D828D981731F0DC
:10018000828DE80FF11D858D90E008958FEF9FEF30
:100190000895FC01918D228D892F90E0805C9F4F06
:1001A000821B91098F739927089589E693E00E9435
:1001B000C90021E0892B09F420E0822F0895FC0179
:1001C000848DDF01A80FB11DA35ABF4F2C91848DE0
:1001D00090E001968F739927848FA689B7892C9315
:1001E000A089B1898C9180648C93938D848D9813B0
:1001F00006C00288F389E02D80818F7D8083089579
:10020000EF92FF920F931F93CF93DF93EC0181E066
:10021000888F9B8D8C8D981305C0E889F989808122
:1002200085FD24C0F62E0B8D10E00F5F1F4F0F735E
:100230001127E02E8C8DE8120CC00FB607FCFACF08
:10024000E889F989808185FFF5CFCE010E94DF0022
:10025000F1CF8B8DFE01E80FF11DE35AFF4FF082C5
:100260000B8FEA89FB898081806207C0EE89FF8954
:100270006083E889F98980818064808381E090E0EF
:10028000DF91CF911F910F91FF90EF900895CF9341
:10029000DF93EC01888D8823C9F0EA89FB8980818E
:1002A00085FD05C0A889B9898C9186FD0FC00FB660
:1002B00007FCF5CF808185FFF2CFA889B9898C91A1
:1002C00085FFEDCFCE010E94DF00E7CFDF91CF9118
:1002D000089580E090E0892B29F00E94D5008111DB
:1002E0000C9400000895833081F028F4813099F057
:1002F0008230A1F008958730A9F08830B9F08430B9
:10030000D1F4809180008F7D03C0809180008F7731
:1003100080938000089584B58F7702C084B58F7D67
:1003200084BD08958091B0008F7703C08091B000A4
:100330008F7D8093B00008951F93CF93DF93282F74
:1003400030E0F901EC55FF4F8491F901E057FF4F80
:10035000D491F901E458FF4FC491CC23C9F0162F72
:1003600081110E947301EC2FF0E0EE0FFF1FEE5899
:10037000FF4FA591B4918FB7F894111105C09C91CE
:10038000ED2FE095E92302C0EC91ED2BEC938FBFAC
:10039000DF91CF911F910895EF92FF920F931F93DA
:1003A000CF93DF93EC019091D1019F5F292F2770AC
:1003B0002093D10190FF02C090E801C090E021FDA0
:1003C0009064247009F0906220E1290FFE013C96B0
:1003D0007E018FE0E80EF11C00E011E061916623E0
:1003E00031F070E0C8010E940B146F5F01C060E043
:1003F000DF0114976C93322F369F030E30E0311DCE
:100400001124CF010797311103C0EC01188203C0FA
:100410003150EC013883662311F061506C93EE1576
:10042000FF05E1F6DF91CF911F910F91FF90EF90C3
:10043000089580E991E00895539A08950F931F93CA
:10044000CF93DF93CDB7DEB762970FB6F894DEBFD8
:100450000FBECDBF8C01F901DC011C968C917A8313
:1004600069835C834B835E834D8390819D879181FB
:100470009E8792819F87813029F4CE0101960E9448
:10048000CC0106C01C861B861A86198618861F8218
:1004900083E0888B1A8A198AD801ED91FC91048433
:1004A000F585E02DBE016F5F7F4FC801099562960B
:1004B0000FB6F894DEBF0FBECDBFDF91CF911F9175
:1004C0000F9108950F931F93CF93DF93CDB7DEB7AE
:1004D00062970FB6F894DEBF0FBECDBF8C01F90155
:1004E000DC011C968C917A8369835C834B835E83E9
:1004F0004D8390819D8791819E8792819F878130D6
:1005000029F4CE0101960E94CC0106C01C861B86F0
:100510001A86198618861F82188A1A8A198AD8019B
:10052000ED91FC910484F585E02DBE016F5F7F4F56
:10053000C801099562960FB6F894DEBF0FBECDBF15
:10054000DF91CF911F910F91089580E090E0089581
:10055000FC01858596850895CF93DF9300D000D068
:1005600000D0CDB7DEB7AB011C821D821E82DC013C
:10057000ED91FC910190F081E02D19821A821B828D
:100580009E012F5F3F4FBE016C5F7F4F09952696FE
:100590000FB6F894DEBF0FBECDBFDF91CF910895A7
:1005A0000E9440141F920F920FB60F9211242F93A6
:1005B0003F934F935F936F937F938F939F93AF93EB
:1005C000BF93EF93FF9389E693E00E94DF00FF91D2
:1005D000EF91BF91AF919F918F917F916F915F91BB
:1005E0004F913F912F910F900FBE0F901F90189534
:1005F0001F920F920FB60F9211242F938F939F93F8
:10060000EF93FF93E0917903F0917A038081E09179
:100610007F03F091800382FD12C09081809182035C
:100620008F5F8F7320918303821751F0E0918203D3
:10063000F0E0E759FC4F958F8093820301C08081E1
:10064000FF91EF919F918F912F910F900FBE0F907F
:100650001F9018953FB7F8948091D7019091D801D9
:10066000A091D901B091DA0126B5A89B05C02F3F12
:1006700019F00196A11DB11D3FBFBA2FA92F982FC8
:100680008827820F911DA11DB11DBC01CD0142E043
:10069000660F771F881F991F4A95D1F708958F928B
:1006A0009F92AF92BF92CF92DF92EF92FF926B0137
:1006B0007C010E942A034B015C01C114D104E104B6
:1006C000F104F1F00E942A03DC01CB018819990999
:1006D000AA09BB09883E9340A105B10570F321E04A
:1006E000C21AD108E108F10888EE880E83E0981E4E
:1006F000A11CB11CC114D104E104F10419F7DDCF30
:10070000FF90EF90DF90CF90BF90AF909F908F9031
:1007100008954F925F926F927F928F92AF92BF92A5
:10072000CF92EF92FF920F931F93CF93DF933C01F1
:10073000EB010E942A03F30127853089621B730BAA
:100740006A307105B0F3F894E881F9815BB15860C3
:100750008BB1877F8BB969859E81262F291B922FAC
:100760002E83BF844A805B807C85FD84EE847F5F1E
:10077000F394E3943F814885AA84CB841081D2010D
:1007800020E0C32F022F322F30811127889431119E
:10079000390F08F43FEF9195889470FD130F17956A
:1007A000889471FD130F1795889472FD130F179598
:1007B000889473FD130F1795889474FD130F179584
:1007C000889475FD130F1795889476FD130F179570
:1007D000889477FD130F17958894232F7111212F7B
:1007E000960F122F002C5BB900C000C017FF8BB909
:1007F00031812227889400C0002C8BB931113C0F25
:1008000000C0002C5BB900C000C016FF8BB908F413
:100810003FEFC195889400C0002C8BB9F0FC230FEA
:1008200000C0002C5BB900C000C015FF8BB9279534
:100830008894F1FC230F00C0002C8BB92795889475
:1008400000C0002C5BB900C000C014FF8BB9F2FCE3
:10085000230F2795889400C0002C8BB9F3FC230F3D
:1008600000C0002C5BB900C000C013FF8BB92795F6
:100870008894F4FC230F00C0002C8BB92795889432
:1008800000C0002C5BB900C000C012FF8BB9F5FCA2
:10089000230F2795889400C0002C8BB9F6FC230FFA
:1008A00000C0002C5BB900C000C011FF8BB92795B8
:1008B0008894F7FC230F00C0002C8BB927958894EF
:1008C00000C0002C5BB900C000C010FF8BB9132F13
:1008D000F110122FCA0D00C0002C8BB900C000C04F
:1008E000002C5BB900C000C017FF8BB932812227F2
:1008F000889400C0002C8BB93111340F00C0002C3B
:100900005BB900C000C016FF8BB908F43FEFEB0DD8
:10091000F11D00C0002C8BB9E0FC230F00C0002C9F
:100920005BB900C000C015FF8BB927958894E1FC26
:10093000230F00C0002C8BB92795889400C0002C91
:100940005BB900C000C014FF8BB9E2FC230F2795F0
:10095000889400C0002C8BB9E3FC230F00C0002C4E
:100960005BB900C000C013FF8BB927958894E4FCE5
:10097000230F00C0002C8BB92795889400C0002C51
:100980005BB900C000C012FF8BB9E5FC230F2795AF
:10099000889400C0002C8BB9E6FC230F00C0002C0B
:1009A0005BB900C000C011FF8BB927958894E7FCA4
:1009B000230F00C0002C8BB92795889400C0002C11
:1009C0005BB900C000C010FF8BB9132FE110122FCC
:1009D000419500C0002C8BB94C0D00C000C05BB924
:1009E00000C000C017FF8BB930812227889400C057
:1009F000002C8BB93111390F00C0002C5BB900C03D
:100A000000C016FF8BB908F43FEF9195889400C0A1
:100A1000002C8BB970FD230F00C0002C5BB900C007
:100A200000C015FF8BB92795889471FD230F00C076
:100A3000002C8BB92795889400C0002C5BB900C0AE
:100A400000C014FF8BB972FD230F2795889400C056
:100A5000002C8BB973FD230F00C0002C5BB900C0C4
:100A600000C013FF8BB92795889474FD230F00C035
:100A7000002C8BB92795889400C0002C5BB900C06E
:100A800000C012FF8BB975FD230F2795889400C015
:100A9000002C8BB976FD230F00C0002C5BB900C081
:100AA00000C011FF8BB92795889477FD230F00C0F4
:100AB000002C8BB92795889400C0002C5BB900C02E
:100AC00000C010FF8BB9132F7111122F960F00C0A9
:100AD000002C8BB9119709F086CE20EE31E0D201BF
:100AE0000E941F14DC01CB01F4E0B695A795979501
:100AF0008795FA95D1F720E030E0A9016AE9469E92
:100B0000412D569E400D511D1124840F951FA11D8E
:100B1000B11D893E43E09407A105B10588F1885EC7
:100B20009340A109B10942E0B695A795979587959D
:100B30004A95D1F747E0849F212D949F200D311DC8
:100B400011246091D00170E0860F971F820F931FD0
:100B50004091D3015091D4016091D5017091D6019B
:100B6000292F3327420F531F611D711D4093D3015D
:100B70005093D4016093D5017093D6018093D00136
:100B800078940E942A03F301708B6787DF91CF91DD
:100B90001F910F91FF90EF90CF90BF90AF908F90EB
:100BA0007F906F905F904F9008952FB7F894609169
:100BB000D3017091D4018091D5019091D6012FBFBE
:100BC00008951F920F920FB60F9211242F933F9307
:100BD0008F939F93AF93BF938091D3019091D40152
:100BE000A091D501B091D6013091D20123E0230F1D
:100BF0002D3720F40196A11DB11D05C026E8230F55
:100C00000296A11DB11D2093D2018093D301909330
:100C1000D401A093D501B093D6018091D7019091D2
:100C2000D801A091D901B091DA010196A11DB11DA1
:100C30008093D7019093D801A093D901B093DA01A2
:100C4000BF91AF919F918F913F912F910F900FBEC8
:100C50000F901F9018951F920F920FB60F921124AC
:100C60002F933F934F935F936F937F938F939F93B4
:100C7000AF93BF93CF93DF93EF93FF9320915C04E7
:100C800030E0F901EC55FF4F8491F901E057FF4F37
:100C9000D491F901E458FF4FC491CC23A1F0811104
:100CA0000E947301EC2FF0E0EE0FFF1FE859FF4F99
:100CB000A591B491EC91ED2331E020E009F430E00E
:100CC000832F922F02C080E090E020916004309149
:100CD00061042F5F3F4F30936104209360042091A3
:100CE0005F04253618F026E020935B0420915B0416
:100CF0002430D9F128F4223069F02330D9F060C0D3
:100D0000253009F453C0263009F05AC021E0209361
:100D10002C0553C0009709F053C020916004309116
:100D200061042436310508F443C010922C0510925A
:100D30005F041DC08130910509F042C0E0915F045D
:100D400021E02E0F20935F04F0E0209160043091A9
:100D50006104EE0FFF1FE55AFB4F30872783109287
:100D600061041092600424E029C00097B9F4E09176
:100D70005F0421E02E0F20935F04F0E020916004D7
:100D800030916104EE0FFF1FE55AFB4F3087278338
:100D9000109261041092600423E010C0209160045E
:100DA000309161042536310558F007C0009741F4B1
:100DB000109261041092600403C025E020935B044C
:100DC00020915E042223B9F0892B51F480915D04B7
:100DD000882321F080915D0461E009C02D9A0BC049
:100DE00080915D04882331F080915D0460E00E9471
:100DF0009C0101C02D98FF91EF91DF91CF91BF91A0
:100E0000AF919F918F917F916F915F914F913F91A2
:100E10002F910F900FBE0F901F901895BC0182303C
:100E2000910508F40895613E8EE1780748F49B012E
:100E300095E0369527959A95E1F748E0420F01C075
:100E40004FEF91E0242F30E0290F311D3595279584
:100E5000229FF001239FF00DF00D11246E177F07E4
:100E600018F44FEF420F05C02F3F310539F091E0E4
:100E7000920F491738F78FEF890F08958FEF089574
:100E80007F928F929F92AF92BF92CF92DF92EF921A
:100E9000FF920F931F93CF93DF93EC018B017A01A5
:100EA0008091DB0190E0C817D90724F0CC24C394CB
:100EB000D12C03C0CC24CA94DC2C8091DC0190E0BE
:100EC0000817190724F0AA24A394B12C03C0AA245C
:100ED000AA94BA2C8091DD0190E0E816F90624F07E
:100EE00088248394912C03C088248A94982C409160
:100EF000DB0150E08091DC0190E02091DD0130E0E9
:100F00004C175D0729F04C0D5D1D7724739402C0CA
:100F1000AE01712C8017910729F08A0D9B1D772453
:100F2000739401C0C8012E153F0529F0280D391D05
:100F30007724739401C0970160E070E0FB01E552F3
:100F4000FE4F4083818322836D5F7F4F6639710539
:100F5000A9F762E070E080E090E00E94590971100A
:100F6000C6CFDF91CF911F910F91FF90EF90DF904F
:100F7000CF90BF90AF909F908F907F90089580E02A
:100F800090E0FC01E552FE4F10821182128203961E
:100F900086399105B1F708958BED91E0FC01E0579A
:100FA000FF4F208133962083329720813396208310
:100FB0003297208133962083039721E0883492076B
:100FC00069F71092DB011092DC011092DD010895A7
:100FD0008091020181508093020181110AC085E451
:100FE00091E00E941E0A0E94BF0780E090E00E94EC
:100FF000141580934E040895409100015091010111
:1010000025E038E0429FC001439F900D529F900D14
:101010001124875E994C9093010180930001890F00
:101020000895CF92DF92EF92FF920F931F93CF9389
:10103000DF936C017A018B01C0E0D0E0CE15DF05B3
:1010400089F0D8016D918D01D601ED91FC9101904F
:10105000F081E02DC6010995892B11F47E0102C0B3
:101060002196ECCFC701DF91CF911F910F91FF9097
:10107000EF90DF90CF9008953F924F925F926F92E2
:101080007F928F929F92AF92BF92CF92DF92EF9218
:10109000FF920F931F93CF93DF9300D01F92CDB792
:1010A000DEB7F0904E048091510490915204A091CB
:1010B0005304B0915404892B8A2B8B2BE9F00E94A6
:1010C0002A030091330510913405209135053091A4
:1010D0003605DC01CB01801B910BA20BB30B0091F9
:1010E00051041091520420915304309154048017FC
:1010F0009107A207B307B8F20E942A036093330551
:10110000709334058093350590933605E09159042A
:10111000F0915A04309759F040915504509156047B
:1011200060915704709158048F2D0995F82E009105
:101130006703109168034F2C512C612C712C011501
:10114000110509F461C0D8011C96EC901C978091A0
:101150004F04909150048436910510F41C961C9213
:10116000D801ED91FC91A280B38019821A821B8272
:10117000F11014C0F80145855685628173819E0186
:101180002F5F3F4FC801F5010995D8011C96EC92DD
:101190001C9714960D911C911597D1CFF801399693
:1011A000CE0101966C0148019CE0890E911CDF0183
:1011B00013973C902191332001F12223F1F0822FEB
:1011C00090E0A0E0B0E09C01AD012F5F3F4F4F4F9A
:1011D0005F4FC301B2010E94A1149B01AC01832D9A
:1011E00090E0A0E0B0E0BC01CD016F5F7F4F8F4F7A
:1011F0009F4F0E94A114D6018C93BFEFCB1ADB0A3C
:10120000E815F905A1F6B6CF809131059091320528
:101210008C010F5F1F4F10933205009331054997E2
:101220009CF10E94D5054B015C0188EE93E0089F7C
:10123000B001099F700D189F700D1124072E000C2E
:10124000880B990BC0902D05D0902E05E0902F05AE
:10125000F0903005A50194012C193D094E095F0954
:101260000E94B1143093500420934F041092320521
:10127000109231050E94D50560932D0570932E05BF
:1012800080932F05909330050F900F900F90DF9172
:10129000CF911F910F91FF90EF90DF90CF90BF9073
:1012A000AF909F908F907F906F905F904F903F9006
:1012B00008958F929F92AF92BF92CF92DF92EF925A
:1012C000FF926B017C010E94D5054B015C0161E03E
:1012D00070E080E090E00E944F030E943C080E9472
:1012E000D505DC01CB0188199909AA09BB098C1520
:1012F0009D05AE05BF0558F3FF90EF90DF90CF90AE
:10130000BF90AF909F908F9008954F925F926F9291
:101310007F928F929F92AF92BF92CF92DF92EF9285
:10132000FF921F93B62FB295BF70A62FAF702B2FD1
:1013300030E0F901EE0FFF1FEE0FFF1FE854FF4FE3
:10134000C590D590E590F4904701AA24BB24782D50
:101350004D2C5E2C6F2C7724542D4C2DAA2309F490
:1013600032C0BF3009F041C0E8EBF0E04591559143
:1013700065917491E62F352F6A2F6295607F162F45
:101380001095582D519F050E50E0511D2E2F269F70
:10139000020E20E0211D752F720F542D519F050E56
:1013A00050E0511D232F269F020E20E0211D520FD9
:1013B0002C2D219F020E20E0211D469F040E40E0AF
:1013C000411D420F1124FC017083518342831F9100
:1013D000FF90EF90DF90CF90BF90AF909F908F9055
:1013E0007F906F905F904F900895F901EE0FFF1F6F
:1013F000EE0FFF1FE454FF4FB9CF20E0DC0160FF88
:1014000003C001C02D932D936250E0F77040D0F7D8
:1014100008956115710579F0FB0101900020E9F74D
:101420003197AF01461B570BDC01ED91FC91028017
:10143000F381E02D099480E090E00895CF93DF934D
:10144000BC0189E693E00E94090AEC0167E671E0BD
:1014500089E693E00E94090A8C0F9D1FDF91CF91CE
:1014600008954F925F926F927F92EF92FF920F9347
:101470001F93CF93DF93CDB7DEB7A1970FB6F89444
:10148000DEBF0FBECDBF7C01FA01CB0119A2223015
:1014900008F42AE08E010F5D1F4F422E512C612C63
:1014A000712CBF01A30192010E94B114F901CA017C
:1014B000015011096A3014F4605D01C0695CD80103
:1014C0006C93232B242B252B61F7B801C7010E94B5
:1014D000090AA1960FB6F894DEBF0FBECDBFDF910B
:1014E000CF911F910F91FF90EF907F906F905F9041
:1014F0004F900895CF92DF92EF92FF92CF93DF93B8
:101500006C01990FEE08FF08F7FE1CC0E09169031B
:10151000F0916A030190F081E02D6DE289E693E09D
:101520000995EC0144275527BA014C195D096E094C
:101530007F092AE089E693E00E94310A7C01EC0EE3
:10154000FD1E08C02AE0B701A60189E693E00E94CB
:10155000310A7C0167E671E089E693E00E94090A9E
:101560008E0D9F1DDF91CF91FF90EF90DF90CF9078
:101570000895CF93DF93CDB7DEB762970FB6F89497
:10158000DEBF0FBECDBF789484B5826084BD84B5C4
:10159000816084BD85B5826085BD85B5816085BD6E
:1015A00080916E00816080936E0010928100809126
:1015B00081008260809381008091810081608093AE
:1015C0008100809180008160809380008091B100D3
:1015D00084608093B1008091B00081608093B000FE
:1015E00080917A00846080937A0080917A00826092
:1015F00080937A0080917A00816080937A00809154
:101600007A00806880937A001092C10010924A0498
:1016100010924B0410924C0410924D041092080446
:101620001092090410920A0410920B0460ED77E006
:1016300080E090E00E944F0389E693E09093490494
:1016400080934804E0917903F0917A0382E08083EB
:10165000E0917503F09176031082E0917703F091A9
:10166000780380E1808310928103E0917D03F09103
:101670007E0386E08083E0917B03F0917C03808190
:1016800080618083E0917B03F0917C03808188609E
:101690008083E0917B03F0917C038081806880836C
:1016A000E0917B03F0917C0380818F7D80830E9499
:1016B000D505609308047093090480930A049093FD
:1016C0000B0468E571E080914804909149040E9400
:1016D000090A6AE070E080E090E00E944F0391E028
:1016E00090931C0480918402811144C01092760270
:1016F000109275028FEF8093790280937A02809323
:101700007B0280937C0280937D0280937E02909383
:101710007F02109281021092800210927802109241
:1017200077028091670390916803892B31F483E7F6
:1017300092E09093680380936703E0917102F091C7
:101740007202309721F083E792E09583848383E7E8
:1017500092E0909372028093710210928302109231
:1017600082028BE191E0909374028093730281E096
:1017700080938402E0917302F09174020480F581F9
:10178000E02D83E792E009958BED91E0909376024E
:101790008093750282E390E09093810280938002AF
:1017A000E0917302F09174020284F385E02D83E7E7
:1017B00092E00995009729F19C0140E050E060E437
:1017C00072E48FE090E00E94D314722F632F009197
:1017D0005104109152042091530430915404872FE6
:1017E000962FDA0180179107A207B30710F4D901E9
:1017F000C8018093510490935204A0935304B09372
:1018000054040E94E80784E090E09093660380937C
:1018100065039E01275F3F4F3E872D870E94FC078F
:1018200035E0839FC0011124923009F4A4C120F453
:10183000913009F482C106C0933009F480C294301B
:1018400009F4F6C48AE691E00E941E0A0E94BF07CE
:1018500003EC12E00E94931420E83EE340E050E0E5
:101860000E94D314D8016D937D938D01B2E00F3C9B
:101870001B0781F70E94931428EE33E040E050E00C
:101880000E94D314DC01CB018C509E4FAF4FBF4F51
:101890006C010E94D5052B013C01A0ED8A2EA7E02A
:1018A0009A2EA12CB12CB2E02B2E312C0E94D50502
:1018B00064197509C61AD70ACB01072E000CAA0BAA
:1018C000BB0B881A990AAA0ABB0AF7EB6F2EF2E043
:1018D0007F2ED301E3ECF2E080819181803727E114
:1018E000920724F411963C922E920DC080343FE171
:1018F000930734F421E030E011963C932E9303C01B
:1019000011961C921E92861B970B97FF02C080E8CF
:101910009EE3918380833296129692E0EF3CF90722
:10192000D9F6D7FE24C08091B5029091B6028431D9
:10193000910574F49C012F5F3F4F3093B6022093C2
:10194000B502880F991FFC01E357FD4F11821082E9
:101950000E94931428EE33E040E050E00E94D3143C
:10196000DC01CB018C509E4FAF4FBF4F6C010E94EA
:10197000BF078091B5029091B6029C0121503109B8
:1019800010918C02FC01EE0FFF1FE357FD4F37FD56
:101990004FC0529142914133510591F4ADE8B2E00C
:1019A00041E050E0481759074CF412966D917C9134
:1019B00013976D937D934F5F5F4FF4CF019732C0C4
:1019C00069E2462E61E0562E07EB12E04F5F5F4F53
:1019D000D2016D917D912D016417750761F4D801D5
:1019E000ED90FC90B2E0EB16F10429F410E0211523
:1019F000310569F41AC00E5F1F4F65E3461661E0BA
:101A0000560631F7BA012115310551F011E0DF0119
:101A100012974D915C914617570731F0112329F029
:101A20007183608311E001C010E021503109AFCF14
:101A30009093B6028093B50210938C029C012150C2
:101A40003109880F991F40E050E0AFEF37FD17C014
:101A5000FA01E80FF91FE557FD4F0190F081E02DE5
:101A6000BF01660F771FE60FF71FE552FE4FA083F9
:101A7000A183A2832150310942505109E7CFE9E205
:101A8000F1E0D3014D915D913D014115510511F0FA
:101A90002AE001C020E881919191DC01AA0FBB1FCF
:101AA000A80FB91FA552BE4F1C9211962C931197E7
:101AB00012961C924130510511F01AE001C01FEF3F
:101AC0009C012F5F3F4FB901660F771F260F371F0D
:101AD000D901A552BE4F1C9311961C9311971296D3
:101AE0001C924230510511F04AE001C04FEF0296BE
:101AF0009C01220F331F820F931FDC01A552BE4FA2
:101B00004C9311961C92119712961C92B3EC6B1683
:101B1000B2E07B0609F0B5CF0E94D5052B013C0150
:101B20006DE770E080E090E00E94590918141904F4
:101B30001A041B040CF4BACECDC587E791E00E94CD
:101B40001E0A0E94FC070E94FC07082F0E94FC0747
:101B5000182F0E94FC07402F50E0612F70E090E0AA
:101B60000E94400740E050E060E070E080E090E0DC
:101B70000E944007AFC583E891E00E941E0A0091D1
:101B800067031091680301151105A1F0F801828126
:101B90009381009749F0658576859B01220F331F5D
:101BA000620F731F0E94FD09D80114960D911C91BC
:101BB0001597E9CF0E943C086BE0CE0101960E9488
:101BC000850989818093DB018A818093DC018B8187
:101BD0008093DD010E943C0862E070E080E090E0CC
:101BE0000E9459090E94CC070E943C0862E070E004
:101BF00080E090E00E9459090E94CC070E943C08B6
:101C000062E070E080E090E00E9459090E94CC07F9
:101C10006FE0CE0101960E94850989818093DB01E6
:101C20008A818093DC018B818093DD010E943C08D6
:101C300062E070E080E090E00E9459090E94CC07C9
:101C40000E943C0862E070E080E090E00E94590948
:101C50000E94CC070E943C0862E070E080E090E0C7
:101C60000E945909AA24A394B12C02E010E08DE14E
:101C7000782E93E0892E912C709EC001719E900D5C
:101C80001124D82E092E000CAA0BBB0BC92EE12C57
:101C9000F12CD986CA861B861C860E94CC076D2D26
:101CA000CE0101960E94850989818093DB018A819A
:101CB0008093DC018B818093DD010E943C0862E00F
:101CC00070E080E090E00E945909BFEFEB1AFB0A38
:101CD000E016F106F1F6C801B4010E940B146B0185
:101CE000EFEFCE1ADE0AE12CF12CCE14DF0474F0F3
:101CF0000E94CC070E943C0862E070E080E090E027
:101D00000E945909FFEFEF1AFF0AEFCFC501800FBC
:101D1000911F58018233910514F48C01ADCF02E379
:101D200010E00E94CC070E943C0862E070E080E076
:101D300090E00E9459090150110999F7CBC48DE830
:101D400091E00E941E0A0E94FC072FEF829FC001B3
:101D500011249A8B892E880C880C880C6BED71E00D
:101D6000788B6F87612C712C792F7074798B892F08
:101D70008072C82E1BEA912E0E949314082D25E52F
:101D8000029F000E00E0011D11243A8937FD27C093
:101D9000A989A1110CC0C11004C0202F2095102FBB
:101DA00014C015E5100FB989F12C0BEA3CC0C11025
:101DB00012C0282D3AEA239F020E20E0211D112493
:101DC000A92DA21B2A2F1AEA100F022F222309F491
:101DD00035C0F12C28C0B0E0202F2095C2C4E9897D
:101DE000E11111C0C1100BC0082D2AEA029F000E9C
:101DF00000E0011D1124292D201B0B5AB2C4398982
:101E0000F02EF0940DC0C11004C025E5200FF92C70
:101E100005C02AEA200FA0E0B5E5FB2EF01A022F3C
:101E200010E00023B1F0202F36E9239F020E20E0BE
:101E3000211D012F122F002361F006C0112309F488
:101E400094C4F12C012F10E026E9029F000E00E05F
:101E5000011DFF2039F03F2D26E9329F030E30E0AF
:101E6000311DF32E2DEC30E040E050E00E94D31401
:101E70006E5C7F4F8F4F9F4F112429E6229F020EE9
:101E800020E0211D1124120F020F422F4F0D6F3F32
:101E900009F420C020E0662321F0669F212D09F07F
:101EA0002F5F2223A1F0112321F0129F010E10E0D9
:101EB000111D002321F0029F000E00E0011D4423AC
:101EC00021F0429F040E40E0411D112403C040E078
:101ED00000E010E0AF85B8891C93F301E552FE4F96
:101EE000018342831C91E02E101708F4E12E4E1559
:101EF00008F4E42E1E190E19F42EFE18DE2CD094D0
:101F0000BFEFDB1639F080E09FEF9D190E940E07AE
:101F1000D82ED094802F90E0810F911D8F0D911DB0
:101F2000892B29F49D2D9095D12C00E0FBC0EFEF7B
:101F3000DE16E9F0D11002C0DD24D3942D2D30E05F
:101F400040E050E06FEF7FEF80E090E00E94D3141C
:101F5000A12FB0E00E94F214172FA02FB0E00E9432
:101F6000F214072FAF2DB0E00E94F214F72EA02E2E
:101F7000B12CA10EB11CAF0CB11CFFEFAF16B10418
:101F8000FCF4A114B10419F4AA24A394B12C950172
:101F900040E050E06FEF7FEF80E090E00E94D314CC
:101FA000A12FB0E00E94F214172FA02FB0E00E94E2
:101FB000F214072FAF2DB0E00E94F214F72E05C0E7
:101FC0002FEFA216B10409F06CF43E2D6A2D360FE6
:101FD00008F43FEF932F3F3F31F080E00E940E075F
:101FE000982F01C09FEF812F101708F4802F8F15B5
:101FF00008F48F2D81132DC001110DC0082F20E88A
:10200000021B08F400E020E6029F000E00E0011D24
:102010001124005386C0202F30E0482F50E0421B8F
:10202000530B241735073CF420E6029F000E00E016
:10203000011D112476C00A5A081B24E0021B08F473
:1020400000E020E6029F000E00E0011D1124005E6A
:1020500068C080133AC0F11019C0292D211B08F463
:1020600020E03FE2239F020E20E0211D1124082FD3
:10207000792D071B08F400E030E6039F000E00E016
:10208000011D1124020F0695005C4BC02F2D30E07E
:10209000082F10E0021B130B201731074CF40F2DF3
:1020A00020E6029F000E00E0011D1124005A39C0F5
:1020B0000F2D25E5021B08F400E020E3029F000E2F
:1020C00000E0011D112400582CC011110DC00F2D6E
:1020D00020E8021B08F400E020E3029F000E00E06D
:1020E000011D112408571DC0412F50E02F2D30E055
:1020F000241B350B012F4217530744F420E6029F9F
:10210000000E00E0011D112400560BC035E5031B35
:1021100008F400E020E6029F000E00E0011D1124FB
:1021200000540F5FF301E153FD4F0083D18292838E
:1021300063E0660E711C8F8598890396988B8F8754
:1021400096E96916710409F017CE0E943C087FECED
:10215000C72E72E0D72E04ED12E0E0EEEE2EE1E0A5
:10216000FE2EFBEDAF2EF1E0BF2E20E0C80103975D
:10217000DC014C91F8013081341708F045C0D601DC
:102180006C91980124503109F90150814801F2E025
:102190008F1A9108D4017C91F6017083F801729135
:1021A000D9017C93D8012C91DC012C93D4016C9340
:1021B0005083F8014083D5016C9197012450310977
:1021C000F9015081C7010397DC014C914701B2E04E
:1021D0008B1A9108F4017081D5017C93F7017291FB
:1021E000D9017C93D7012C91DC012C93D4016C9301
:1021F0005083F70140830E943C0862E070E080E079
:1022000090E00E94590921E0F3E0CF0ED11C0D5F50
:102210001F4F33E0A30EB11C63E0E60EF11C72E623
:10222000C71673E0D70609F0A1CF211190CF52C293
:102230008DE991E00E941E0A0E94BF0710E0EDEDBB
:10224000F1E0E12CF12CE0FC06C0DF0112971C93B9
:1022500011961C9310838FEFE81AF80A339692E3D5
:10226000E916F10481F70E943C0862E070E080E02A
:1022700090E00E9459091F5F1F3F09F764E070E07A
:1022800080E090E00E9459091093DB011093DC017B
:102290001092DD010E943C0862E070E080E090E076
:1022A0000E9459091093DE011093DF011092E001A2
:1022B0000E943C0862E070E080E090E00E945909D2
:1022C00063EEA62E61E0B62E99249A94F501359717
:1022D000908231969082319610826501A2E0CA1AEE
:1022E000D108F6019082D5019E928D01F5011082F0
:1022F0003897108231961082319610820E943C08E5
:1023000062E070E080E090E00E945909D6011C92E2
:10231000F8011082D5011C920E943C0862E070E036
:1023200080E090E00E945909B3E0AB0EB11CE3E7F6
:10233000AE16E2E0BE0651F610926B0210926C02ED
:1023400010926D020E943C0862E070E080E090E034
:102350000E94590910926E0210926F021092700240
:102360000E943C0862E070E080E090E00E94590921
:1023700068EE73E080E090E00E945909E1E7CE2E1C
:10238000E2E0DE2E0BED11E022242A94F0E6BF2ECF
:10239000A0E2AA2EB7E89B2E8EEC882E9BEE792E1B
:1023A00020E8622E3CEC532E45E5442E53E3352EB7
:1023B000970180E090E02233310530F4F601E80F18
:1023C000F91F1082118212822F5F3F4F03968C33C8
:1023D000910589F7F2E3EF16F10440F4D6012C924F
:1023E000F801E956FF4F208231961082C70101960D
:1023F000C29740F4F801E756FF4F208231962082C1
:1024000031961082C7010596C29740F4F801EB554A
:10241000FF4FB0823196A08231961082C701069696
:10242000C29740F4F801E855FF4FB0823196A08280
:1024300031961082C7014196C29740F4F801E753E4
:10244000FF4F90823196808231967082C70142960A
:10245000C29740F4F801E453FF4F90823196808296
:1024600031967082C7010D96C29740F4F801E3548B
:10247000FF4F60823196108231961082C7010E960E
:10248000C29740F4F801E054FF4F60823196108209
:1024900031961082C7010996C29740F4F801EF54B3
:1024A000FF4F50823196408231963082C7010A96A2
:1024B000C29740F4F801EC54FF4F508231964082AD
:1024C000319630820E943C0862E070E080E090E04B
:1024D0000E945909B2E3EB16F10440F4F6011082B0
:1024E000F801E956FF4F1082319610820E943C0895
:1024F00062E070E080E090E00E945909F1E0EF1A9C
:10250000F10823E0C21AD108035011093CEEE3168A
:102510003FEFF30609F04CCF68EE73E080E090E007
:102520000E9459098FEF9FEF9A8389838BEF9FEF6A
:102530009C838B8387EF9FEF9E838D8383EF9FEF39
:1025400098878F831C861B861A861986812C912C6E
:102550000BED1FEFDD24DA9479EAC72E552453944E
:102560000E94BF0780FE05C05BE820E04FEF3FEF11
:1025700004C05FEF2FEF4BE830E0BE01675F7F4F95
:102580003B01CE0101967C01DC015B01F5018191EB
:102590005F01882301F18D919C9111978233910500
:1025A00050F4FC01EE0FFF1FE80FF91FE552FE4F3C
:1025B000C082C182C28201968233910558F5BC0166
:1025C000660F771F860F971FFC01E552FE4FC082F2
:1025D000C182C2821FC08D919C9111978233910557
:1025E00050F4FC01EE0FFF1FE80FF91FE552FE4FFC
:1025F00030833183428301968233910558F4BC01C4
:10260000660F771F860F971FFC01E552FE4F208350
:102610002183528312966D857E85A617B70709F030
:10262000B5CF0233110550F4F801EE0FFF1FE00F94
:10263000F11FE552FE4FD082D182128258017FEF06
:10264000A71AB70A82E3A816B10450F4F501EE0FF9
:10265000FF1FEA0DFB1DE552FE4F208321831282EE
:102660000E943C0862E070E080E090E00E9459091E
:102670009FEF891A990A80FE850198012F5F3F4FCD
:10268000A40143705527D3018C91F70181110EC02D
:10269000808191812817390711F45C920CC0411593
:1026A000510549F401969183808305C08081918111
:1026B000019791838083FFEF6F1A7F0A62E0E60E35
:1026C000F11C8D859E85E816F906E9F602331105A1
:1026D0000CF446CF8BEA91E00E941E0A80916503BC
:1026E000909166030E947A0A4091020150E060E0F6
:1026F00070E02AE089E693E00E94310A67E671E023
:1027000089E693E00E94090A80916503909166032F
:10271000019729F0909366038093650308C084E0D5
:1027200090E090936603809365030E94E807809190
:102730006503909166030E947A0A4091020150E07D
:1027400060E070E02AE089E693E00E94310A67E6E3
:1027500071E089E693E00E94090A0E9469010C94E5
:102760000E0CF02E022F10E066CB012FF12C7ACB4D
:10277000E9E6F3E01382128288EE93E0A0E0B0E095
:1027800084839583A683B78389E391E091838083D3
:1027900085EC90E09587848784EC90E09787868726
:1027A00080EC90E0918B808B81EC90E0938B828B1E
:1027B00082EC90E0958B848B86EC90E0978B868BF7
:1027C000118E128E138E148EE6E0F4E016821782BC
:1027D000108611861286138614861586168617862D
:1027E000108A118A128A138A148A158AEEE4F4E098
:1027F0008FEF808312821182148613868FEF9FEFF2
:10280000DC0187839087A187B287EBE5F4E08BE05A
:1028100081831382089597FB072E16F4009407D046
:1028200077FD09D00E94261407FC05D03EF4909550
:1028300081959F4F0895709561957F4F08950E94EF
:102840000515B7FF0895821B930B0895AA1BBB1BA8
:1028500051E107C0AA1FBB1FA617B70710F0A61BA0
:10286000B70B881F991F5A95A9F780959095BC01C1
:10287000CD010895EE0FFF1F0590F491E02D09940E
:1028800081E090E0F8940C9414158F929F92AF928F
:10289000BF92CF92DF92EF92FF92CF93DF93EC0142
:1028A000688179818A819B81611571058105910516
:1028B00021F464E279ED8BE597E02DE133EF41E01F
:1028C00050E00E94D31449015A019B01AC01A7EAD0
:1028D000B1E40E94F2146B017C01ACEEB4EFA501EF
:1028E00094010E940015DC01CB018C0D9D1DAE1DD5
:1028F000BF1DB7FF03C00197A109B0488883998322
:10290000AA83BB83BC01CD019F77DF91CF91FF905C
:10291000EF90DF90CF90BF90AF909F908F900895F1
:102920000E944514089583E091E00E9445140895A3
:102930006093030170930401809305019093060155
:102940000895DB018F939F930E94F214BF91AF9182
:10295000A29F800D911DA39F900DB29F900D1124F9
:102960000895A1E21A2EAA1BBB1BFD010DC0AA1FD0
:10297000BB1FEE1FFF1FA217B307E407F50720F0E8
:10298000A21BB30BE40BF50B661F771F881F991F63
:102990001A9469F760957095809590959B01AC01AC
:1029A000BD01CF010895052E97FB1EF400940E94EF
:1029B000EA1457FD07D00E94B11407FC03D04EF46F
:1029C0000C94EA1450954095309521953F4F4F4F08
:1029D0005F4F089590958095709561957F4F8F4FCB
:1029E0009F4F08950E940515A59F900DB49F900DCF
:1029F000A49F800D911D11240895B7FF0C94F2142B
:102A00000E94F214821B930B0895A29FB001B39F02
:102A1000C001A39F700D811D1124911DB29F700DE7
:0C2A2000811D1124911D0895F894FFCF32
:102A2C003905080100000000000000D002D002D0DF
:102A3C0002AC02A802A5020000000062021E021CE9
:102A4C0002AC02A8021902890307000D001800202D
:102A5C000027002C000000000000011108C900A78D
:102A6C0000BB004701446F6E652120436C656172A9
:102A7C00696E676F75742100564D4450565F317CFA
:102A8C00315F564D4450560D0A00446F696E6720F5
:102A9C0073747265657400446F696E672072616E41
:102AAC00646F00446F696E672046696200446F6909
:102ABC006E67205377617020736F727400446F6976
:102ACC006E6720506163204D616E0044696D206318
:102ADC006F756E746572207468656E2062726967BA
:102AEC0068746E6573732C2074776963653A0000A3
:107E0000112484B714BE81FFF0D085E080938100F7
:107E100082E08093C00088E18093C10086E0809377
:107E2000C20080E18093C4008EE0C9D0259A86E02C
:107E300020E33CEF91E0309385002093840096BBD3
:107E4000B09BFECF1D9AA8958150A9F7CC24DD24C4
:107E500088248394B5E0AB2EA1E19A2EF3E0BF2EE7
:107E6000A2D0813461F49FD0082FAFD0023811F036
:107E7000013811F484E001C083E08DD089C08234E0
:107E800011F484E103C0853419F485E0A6D080C0E4
:107E9000853579F488D0E82EFF2485D0082F10E0AE
:107EA000102F00270E291F29000F111F8ED06801E7
:107EB0006FC0863521F484E090D080E0DECF843638
:107EC00009F040C070D06FD0082F6DD080E0C81688
:107ED00080E7D80618F4F601B7BEE895C0E0D1E017
:107EE00062D089930C17E1F7F0E0CF16F0E7DF06D8
:107EF00018F0F601B7BEE89568D007B600FCFDCFD4
:107F0000A601A0E0B1E02C9130E011968C91119780
:107F100090E0982F8827822B932B1296FA010C0160
:107F200087BEE89511244E5F5F4FF1E0A038BF0790
:107F300051F7F601A7BEE89507B600FCFDCF97BE46
:107F4000E89526C08437B1F42ED02DD0F82E2BD052
:107F50003CD0F601EF2C8F010F5F1F4F84911BD097
:107F6000EA94F801C1F70894C11CD11CFA94CF0C13
:107F7000D11C0EC0853739F428D08EE10CD085E9AC
:107F80000AD08FE07ACF813511F488E018D01DD067
:107F900080E101D065CF982F8091C00085FFFCCF94
:107FA0009093C60008958091C00087FFFCCF809118
:107FB000C00084FD01C0A8958091C6000895E0E648
:107FC000F0E098E1908380830895EDDF803219F02E
:107FD00088E0F5DFFFCF84E1DECF1F93182FE3DFCA
:107FE0001150E9F7F2DF1F91089580E0E8DFEE27F6
:047FF000FF270994CA
:027FFE00040479
:0400000300007E007B
:00000001FF