:100000000C947D000C94A5000C94A5000C94A50004
:100010000C94A5000C94A5000C94A5000C942B0640
:100020000C94A5000C94A5000C94A5000C94A500BC
:100030000C94A5000C94A5000C94A5000C94A500AC
:100040000C94E1050C94A5000C94F8020C94D202D7
:100050000C94A5000C94A5000C94A5000C94A5008C
:100060000C94A5000C94A5000000000023002600BD
:10007000290000000000250028002B0004040404CF
:100080000404040402020202020203030303030342
:10009000010204081020408001020408102001021F
:1000A00004081020000000080002010000030407FB
:1000B00000000000000000000000FF00002AD50042
:1000C0000055AB00007FAB0000ABAB0000D5560085
:1000D00000FF00002AD5000055AB0000AA56000022
:1000E000FF000000D5002A00AB00550081007F0012
:1000F0005500AB002B00D500F61211241FBECFEF28
:10010000D8E0DEBFCDBF11E0A0E0B1E0E8EAF8E260
:1001100002C005900D92A835B107D9F724E0A8E5F3
:10012000B1E001C01D92AD3BB207E1F710E0CDE7B1
:10013000D0E004C02197FE010E947813CC37D1078C
:10014000C9F70E941A0A0C9452140C940000FC0186
:10015000918D828D981761F0828DDF01A80FB11DFE
:100160005D968C91928D9F5F9F73928F90E0089522
:100170008FEF9FEF0895FC01918D828D981731F0DC
:10018000828DE80FF11D858D90E008958FEF9FEF30
:100190000895FC01918D228D892F90E0805C9F4F06
:1001A000821B91098F73992708958FEE92E00E9428
:1001B000C90021E0892B09F420E0822F0895FC0179
:1001C000848DDF01A80FB11DA35ABF4F2C91848DE0
:1001D00090E001968F739927848FA689B7892C9315
:1001E000A089B1898C9180648C93938D848D9813B0
:1001F00006C00288F389E02D80818F7D8083089579
:10020000EF92FF920F931F93CF93DF93EC0181E066
:10021000888F9B8D8C8D981305C0E889F989808122
:1002200085FD24C0F62E0B8D10E00F5F1F4F0F735E
:100230001127E02E8C8DE8120CC00FB607FCFACF08
:10024000E889F989808185FFF5CFCE010E94DF0022
:10025000F1CF8B8DFE01E80FF11DE35AFF4FF082C5
:100260000B8FEA89FB898081806207C0EE89FF8954
:100270006083E889F98980818064808381E090E0EF
:10028000DF91CF911F910F91FF90EF900895CF9341
:10029000DF93EC01888D8823C9F0EA89FB8980818E
:1002A00085FD05C0A889B9898C9186FD0FC00FB660
:1002B00007FCF5CF808185FFF2CFA889B9898C91A1
:1002C00085FFEDCFCE010E94DF00E7CFDF91CF9118
:1002D000089580E090E0892B29F00E94D5008111DB
:1002E0000C9400000895833081F028F4813099F057
:1002F0008230A1F008958730A9F08830B9F08430B9
:10030000D1F4809180008F7D03C0809180008F7731
:1003100080938000089584B58F7702C084B58F7D67
:1003200084BD08958091B0008F7703C08091B000A4
:100330008F7D8093B00008951F93CF93DF93282F74
:1003400030E0F901EC55FF4F8491F901E057FF4F80
:10035000D491F901E458FF4FC491CC23C9F0162F72
:1003600081110E947301EC2FF0E0EE0FFF1FEE5899
:10037000FF4FA591B4918FB7F894111105C09C91CE
:10038000ED2FE095E92302C0EC91ED2BEC938FBFAC
:10039000DF91CF911F910895EF92FF920F931F93DA
:1003A000CF93DF93EC01909159019F5F292F277024
:1003B0002093590190FF02C090E801C090E021FD18
:1003C0009064247009F0906220E1290FFE013C96B0
:1003D0007E018FE0E80EF11C00E011E061916623E0
:1003E00031F070E0C8010E9449136F5F01C060E006
:1003F000DF0114976C93322F369F030E30E0311DCE
:100400001124CF010797311103C0EC01188203C0FA
:100410003150EC013883662311F061506C93EE1576
:10042000FF05E1F6DF91CF911F910F91FF90EF90C3
:10043000089580E991E00895539A08950F931F93CA
:10044000CF93DF93CDB7DEB762970FB6F894DEBFD8
:100450000FBECDBF8C01F901DC011C968C917A8313
:1004600069835C834B835E834D8390819D879181FB
:100470009E8792819F87813029F4CE0101960E9448
:10048000CC0106C01C861B861A86198618861F8218
:1004900083E0888B1A8A198AD801ED91FC91048433
:1004A000F585E02DBE016F5F7F4FC801099562960B
:1004B0000FB6F894DEBF0FBECDBFDF91CF911F9175
:1004C0000F9108950F931F93CF93DF93CDB7DEB7AE
:1004D00062970FB6F894DEBF0FBECDBF8C01F90155
:1004E000DC011C968C917A8369835C834B835E83E9
:1004F0004D8390819D8791819E8792819F878130D6
:1005000029F4CE0101960E94CC0106C01C861B86F0
:100510001A86198618861F82188A1A8A198AD8019B
:10052000ED91FC910484F585E02DBE016F5F7F4F56
:10053000C801099562960FB6F894DEBF0FBECDBF15
:10054000DF91CF911F910F91089580E090E0089581
:10055000FC01858596850895CF93DF9300D000D068
:1005600000D0CDB7DEB7AB011C821D821E82DC013C
:10057000ED91FC910190F081E02D19821A821B828D
:100580009E012F5F3F4FBE016C5F7F4F09952696FE
:100590000FB6F894DEBF0FBECDBFDF91CF910895A7
:1005A0000E947E131F920F920FB60F9211242F9369
:1005B0003F934F935F936F937F938F939F93AF93EB
:1005C000BF93EF93FF938FEE92E00E94DF00FF91C5
:1005D000EF91BF91AF919F918F917F916F915F91BB
:1005E0004F913F912F910F900FBE0F901F90189534
:1005F0001F920F920FB60F9211242F938F939F93F8
:10060000EF93FF93E091FF02F09100038081E0916E
:100610000503F091060382FD12C0908180910803CA
:100620008F5F8F7320910903821751F0E0910803C7
:10063000F0E0E151FD4F958F8093080301C0808168
:10064000FF91EF919F918F912F910F900FBE0F907F
:100650001F9018953FB7F89480915F0190916001C9
:10066000A0916101B091620126B5A89B05C02F3F02
:1006700019F00196A11DB11D3FBFBA2FA92F982FC8
:100680008827820F911DA11DB11DBC01CD0142E043
:10069000660F771F881F991F4A95D1F708958F928B
:1006A0009F92AF92BF92CF92DF92EF92FF926B0137
:1006B0007C010E942A034B015C01C114D104E104B6
:1006C000F104F1F00E942A03DC01CB018819990999
:1006D000AA09BB09883E9340A105B10570F321E04A
:1006E000C21AD108E108F10888EE880E83E0981E4E
:1006F000A11CB11CC114D104E104F10419F7DDCF30
:10070000FF90EF90DF90CF90BF90AF909F908F9031
:1007100008954F925F926F927F928F92AF92BF92A5
:10072000CF92EF92FF920F931F93CF93DF933C01F1
:10073000EB010E942A03F30127853089621B730BAA
:100740006A307105B0F3F894E881F9815BB15860C3
:100750008BB1877F8BB969859E81262F291B922FAC
:100760002E83BF844A805B807C85FD84EE847F5F1E
:10077000F394E3943F814885AA84CB841081D2010D
:1007800020E0C32F022F322F30811127889431119E
:10079000390F08F43FEF9195889470FD130F17956A
:1007A000889471FD130F1795889472FD130F179598
:1007B000889473FD130F1795889474FD130F179584
:1007C000889475FD130F1795889476FD130F179570
:1007D000889477FD130F17958894232F7111212F7B
:1007E000960F122F002C5BB900C000C017FF8BB909
:1007F00031812227889400C0002C8BB931113C0F25
:1008000000C0002C5BB900C000C016FF8BB908F413
:100810003FEFC195889400C0002C8BB9F0FC230FEA
:1008200000C0002C5BB900C000C015FF8BB9279534
:100830008894F1FC230F00C0002C8BB92795889475
:1008400000C0002C5BB900C000C014FF8BB9F2FCE3
:10085000230F2795889400C0002C8BB9F3FC230F3D
:1008600000C0002C5BB900C000C013FF8BB92795F6
:100870008894F4FC230F00C0002C8BB92795889432
:1008800000C0002C5BB900C000C012FF8BB9F5FCA2
:10089000230F2795889400C0002C8BB9F6FC230FFA
:1008A00000C0002C5BB900C000C011FF8BB92795B8
:1008B0008894F7FC230F00C0002C8BB927958894EF
:1008C00000C0002C5BB900C000C010FF8BB9132F13
:1008D000F110122FCA0D00C0002C8BB900C000C04F
:1008E000002C5BB900C000C017FF8BB932812227F2
:1008F000889400C0002C8BB93111340F00C0002C3B
:100900005BB900C000C016FF8BB908F43FEFEB0DD8
:10091000F11D00C0002C8BB9E0FC230F00C0002C9F
:100920005BB900C000C015FF8BB927958894E1FC26
:10093000230F00C0002C8BB92795889400C0002C91
:100940005BB900C000C014FF8BB9E2FC230F2795F0
:10095000889400C0002C8BB9E3FC230F00C0002C4E
:100960005BB900C000C013FF8BB927958894E4FCE5
:10097000230F00C0002C8BB92795889400C0002C51
:100980005BB900C000C012FF8BB9E5FC230F2795AF
:10099000889400C0002C8BB9E6FC230F00C0002C0B
:1009A0005BB900C000C011FF8BB927958894E7FCA4
:1009B000230F00C0002C8BB92795889400C0002C11
:1009C0005BB900C000C010FF8BB9132FE110122FCC
:1009D000419500C0002C8BB94C0D00C000C05BB924
:1009E00000C000C017FF8BB930812227889400C057
:1009F000002C8BB93111390F00C0002C5BB900C03D
:100A000000C016FF8BB908F43FEF9195889400C0A1
:100A1000002C8BB970FD230F00C0002C5BB900C007
:100A200000C015FF8BB92795889471FD230F00C076
:100A3000002C8BB92795889400C0002C5BB900C0AE
:100A400000C014FF8BB972FD230F2795889400C056
:100A5000002C8BB973FD230F00C0002C5BB900C0C4
:100A600000C013FF8BB92795889474FD230F00C035
:100A7000002C8BB92795889400C0002C5BB900C06E
:100A800000C012FF8BB975FD230F2795889400C015
:100A9000002C8BB976FD230F00C0002C5BB900C081
:100AA00000C011FF8BB92795889477FD230F00C0F4
:100AB000002C8BB92795889400C0002C5BB900C02E
:100AC00000C010FF8BB9132F7111122F960F00C0A9
:100AD000002C8BB9119709F086CE20EE31E0D201BF
:100AE0000E945D13DC01CB01F4E0B695A7959795C4
:100AF0008795FA95D1F720E030E0A9016AE9469E92
:100B0000412D569E400D511D1124840F951FA11D8E
:100B1000B11D893E43E09407A105B10588F1885EC7
:100B20009340A109B10942E0B695A795979587959D
:100B30004A95D1F747E0849F212D949F200D311DC8
:100B400011246091580170E0860F971F820F931F48
:100B500040915B0150915C0160915D0170915E017B
:100B6000292F3327420F531F611D711D40935B01D5
:100B700050935C0160935D0170935E018093580116
:100B800078940E942A03F301708B6787DF91CF91DD
:100B90001F910F91FF90EF90CF90BF90AF908F90EB
:100BA0007F906F905F904F9008952FB7F894609169
:100BB0005B0170915C0180915D0190915E012FBF9E
:100BC00008951F920F920FB60F9211242F933F9307
:100BD0008F939F93AF93BF9380915B0190915C0142
:100BE000A0915D01B0915E0130915A0123E0230F85
:100BF0002D3720F40196A11DB11D05C026E8230F55
:100C00000296A11DB11D20935A0180935B01909320
:100C10005C01A0935D01B0935E0180915F019091B2
:100C20006001A0916101B09162010196A11DB11D09
:100C300080935F0190936001A0936101B093620182
:100C4000BF91AF919F918F913F912F910F900FBEC8
:100C50000F901F9018951F920F920FB60F921124AC
:100C60002F933F934F935F936F937F938F939F93B4
:100C7000AF93BF93CF93DF93EF93FF932091E20362
:100C800030E0F901EC55FF4F8491F901E057FF4F37
:100C9000D491F901E458FF4FC491CC23A1F0811104
:100CA0000E947301EC2FF0E0EE0FFF1FE859FF4F99
:100CB000A591B491EC91ED2331E020E009F430E00E
:100CC000832F922F02C080E090E02091E6033091C4
:100CD000E7032F5F3F4F3093E7032093E603209114
:100CE000E503253618F026E02093E1032091E10387
:100CF0002430D9F128F4223069F02330D9F060C0D3
:100D0000253009F453C0263009F05AC021E0209361
:100D1000B20453C0009709F053C02091E60330910C
:100D2000E7032436310508F443C01092B204109250
:100D3000E5031DC08130910509F042C0E091E50353
:100D400021E02E0F2093E503F0E02091E60330919F
:100D5000E703EE0FFF1FEF51FC4F30872783109200
:100D6000E7031092E60324E029C00097B9F4E0916C
:100D7000E50321E02E0F2093E503F0E02091E60348
:100D80003091E703EE0FFF1FEF51FC4F30872783B1
:100D90001092E7031092E60323E010C02091E603CF
:100DA0003091E7032536310558F007C0009741F42C
:100DB0001092E7031092E60303C025E02093E103BD
:100DC0002091E4032223B9F0892B51F48091E303AD
:100DD000882321F08091E30361E009C02D9A0BC0C4
:100DE0008091E303882331F08091E30360E00E9467
:100DF0009C0101C02D98FF91EF91DF91CF91BF91A0
:100E0000AF919F918F917F916F915F914F913F91A2
:100E10002F910F900FBE0F901F901895BC0182303C
:100E2000910508F40895613E8EE1780748F49B012E
:100E300095E0369527959A95E1F748E0420F01C075
:100E40004FEF91E0242F30E0290F311D3595279584
:100E5000229FF001239FF00DF00D11246E177F07E4
:100E600018F44FEF420F05C02F3F310539F091E0E4
:100E7000920F491738F78FEF890F08958FEF089574
:100E80007F928F929F92AF92BF92CF92DF92EF921A
:100E9000FF920F931F93CF93DF93EC018B017A01A5
:100EA0008091630190E0C817D90724F0CC24C39443
:100EB000D12C03C0CC24CA94DC2C8091640190E036
:100EC0000817190724F0AA24A394B12C03C0AA245C
:100ED000AA94BA2C8091650190E0E816F90624F0F6
:100EE00088248394912C03C088248A94982C409160
:100EF000630150E08091640190E02091650130E051
:100F00004C175D0729F04C0D5D1D7724739402C0CA
:100F1000AE01712C8017910729F08A0D9B1D772453
:100F2000739401C0C8012E153F0529F0280D391D05
:100F30007724739401C0970160E070E0FB01ED59E4
:100F4000FE4F4083818322836D5F7F4F6639710539
:100F5000A9F76EE170E080E090E00E945509711001
:100F6000C6CFDF91CF911F910F91FF90EF90DF904F
:100F7000CF90BF90AF909F908F907F90089580E02A
:100F800090E0FC01ED59FE4F10821182128203960F
:100F900086399105B1F7089583E691E0FC01E057A9
:100FA000FF4F208133962083329720813396208310
:100FB0003297208133962083039720E0803D92076B
:100FC00069F710926301109264011092650108950F
:100FD00080910201815080930201811106C00E941C
:100FE000BF0780E090E00E9452148093D4030895DC
:100FF000409100015091010125E038E0429FC0017D
:10100000439F900D529F900D1124875E994C9093B1
:10101000010180930001890F0895CF92DF92EF9232
:10102000FF920F931F93CF93DF936C017A018B0193
:10103000C0E0D0E0CE15DF0589F0D8016D918D01BB
:10104000D601ED91FC910190F081E02DC60109954A
:10105000892B11F47E0102C02196ECCFC701DF91EC
:10106000CF911F910F91FF90EF90DF90CF90089557
:101070003F924F925F926F927F928F929F92AF9228
:10108000BF92CF92DF92EF92FF920F931F93CF9375
:10109000DF9300D01F92CDB7DEB7F090D4038091DC
:1010A000D7039091D803A091D903B091DA03892B8B
:1010B0008A2B8B2BE9F00E942A030091B90410912E
:1010C000BA042091BB043091BC04DC01CB01801B2D
:1010D000910BA20BB30B0091D7031091D803209171
:1010E000D9033091DA0380179107A207B307B8F24A
:1010F0000E942A036093B9047093BA048093BB04DE
:101100009093BC04E091DF03F091E003309759F035
:101110004091DB035091DC036091DD037091DE03AD
:101120008F2D0995F82E0091ED021091EE024F2CB3
:10113000512C612C712C0115110509F461C0D801E5
:101140001C96EC901C978091D5039091D603843621
:10115000910510F41C961C92D801ED91FC91A2808F
:10116000B38019821A821B82F11014C0F8014585E0
:101170005685628173819E012F5F3F4FC801F50143
:101180000995D8011C96EC921C9714960D911C9110
:101190001597D1CFF8013996CE0101966C0148011F
:1011A0009CE0890E911CDF0113973C902191332024
:1011B00001F12223F1F0822F90E0A0E0B0E09C0149
:1011C000AD012F5F3F4F4F4F5F4FC301B2010E94F0
:1011D000DF139B01AC01832D90E0A0E0B0E0BC01E7
:1011E000CD016F5F7F4F8F4F9F4F0E94DF13D6015E
:1011F0008C93BFEFCB1ADB0AE815F905A1F6B6CF41
:101200008091B7049091B8048C010F5F1F4F109329
:10121000B8040093B70449979CF10E94D5054B018F
:101220005C0188EE93E0089FB001099F700D189F44
:10123000700D1124072E000C880B990BC090B3047D
:10124000D090B404E090B504F090B604A5019401E8
:101250002C193D094E095F090E94EF133093D60304
:101260002093D5031092B8041092B7040E94D505BC
:101270006093B3047093B4048093B5049093B60460
:101280000F900F900F90DF91CF911F910F91FF90D2
:10129000EF90DF90CF90BF90AF909F908F907F9016
:1012A0006F905F904F903F9008958F929F92AF9272
:1012B000BF92CF92DF92EF92FF926B017C010E946E
:1012C000D5054B015C0161E070E080E090E00E9498
:1012D0004F030E9438080E94D505DC01CB01881914
:1012E0009909AA09BB098C159D05AE05BF0558F3E0
:1012F000FF90EF90DF90CF90BF90AF909F908F9036
:1013000008954F925F926F927F928F929F92AF92C9
:10131000BF92CF92DF92EF92FF921F93B62FB295BA
:10132000BF70A62FAF702B2F30E0F901EE0FFF1F1B
:10133000EE0FFF1FE854FF4FC590D590E590F49055
:101340004701AA24BB24782D4D2C5E2C6F2C7724CA
:10135000542D4C2DAA2309F432C0BF3009F041C0EE
:10136000E8EBF0E04591559165917491E62F352FAA
:101370006A2F6295607F162F1095582D519F050E8C
:1013800050E0511D2E2F269F020E20E0211D752FAB
:10139000720F542D519F050E50E0511D232F269F93
:1013A000020E20E0211D520F2C2D219F020E20E065
:1013B000211D469F040E40E0411D420F1124FC01F7
:1013C0007083518342831F91FF90EF90DF90CF9005
:1013D000BF90AF909F908F907F906F905F904F9055
:1013E0000895F901EE0FFF1FEE0FFF1FE454FF4FAA
:1013F000B9CF20E0DC0160FF03C001C02D932D9325
:101400006250E0F77040D0F708956115710579F0EA
:10141000FB0101900020E9F73197AF01461B570B04
:10142000DC01ED91FC910280F381E02D099480E0D4
:1014300090E00895CF93DF93CDB7DEB7AA970FB6AC
:10144000F894DEBF0FBECDBF789484B5826084BDB2
:1014500084B5816084BD85B5826085BD85B58160B8
:1014600085BD80916E00816080936E001092810036
:1014700080918100826080938100809181008160F1
:1014800080938100809180008160809380008091B2
:10149000B10084608093B1008091B000816080933E
:1014A000B00080917A00846080937A0080917A0005
:1014B000826080937A0080917A00816080937A00C4
:1014C00080917A00806880937A001092C100109217
:1014D000D0031092D1031092D2031092D303109232
:1014E0008E0310928F03109290031092910360ED7F
:1014F00077E080E090E00E944F038FEE92E09093BF
:10150000CF038093CE03E091FF02F091000382E0CD
:101510008083E091FB02F091FC021082E091FD02D9
:10152000F091FE0280E1808310920703E0910303B3
:10153000F091040386E08083E0910103F0910203BF
:10154000808180618083E0910103F09102038081BA
:1015500088608083E0910103F091020380818068BC
:101560008083E0910103F091020380818F7D80836D
:101570000E94D50560938E0370938F038093900330
:101580009093910365E471E08091CE039091CF0335
:101590000E94050A6AE070E080E090E00E944F033C
:1015A00091E09093A20380910C02811144C01092AB
:1015B000FE011092FD018FEF8093010280930202E1
:1015C00080930302809304028093050280930602B5
:1015D00090930702109209021092080210920002E2
:1015E0001092FF018091ED029091EE02892B31F46F
:1015F0008BEF91E09093EE028093ED02E091F90180
:10160000F091FA01309721F08BEF91E0958384837C
:101610008BEF91E09093FA018093F90110920B0205
:1016200010920A028BE191E09093FC018093FB0100
:1016300081E080930C02E091FB01F091FC010480B9
:10164000F581E02D8BEF91E0099583E691E0909391
:10165000FE018093FD0182E390E090930902809364
:101660000802E091FB01F091FC010284F385E02D7A
:101670008BEF91E00995009729F19C0140E050E043
:1016800060E472E48FE090E00E941114722F632FE7
:101690000091D7031091D8032091D9033091DA0338
:1016A000872F962FDA0180179107A207B30710F44E
:1016B000D901C8018093D7039093D803A093D9038D
:1016C000B093DA030E94E8070E94BF070BE412E020
:1016D0000E94D11320E83EE340E050E00E94111444
:1016E0006B017C01D8016D937D938D0197FF28C01C
:1016F000E091EF02F091F0020190F081E02D6DE2B7
:101700008FEE92E0099522273327A9012C193D0974
:101710004E095F0919A2FE01B1967F01CA01B90104
:101720002AE030E040E050E00E94EF13605DD70116
:101730006E937D01211531054105510579F717C0DB
:101740009B01AC0119A2FE01B1967F01CA01B9014A
:101750002AE030E040E050E00E94EF13605DD701E6
:101760006E937D01211531054105510579F7B701CA
:101770008FEE92E00E94050A64E571E08FEE92E040
:101780000E94050AB2E007351B0709F0A1CF0E94AD
:10179000D11328EE33E040E050E00E941114DC0148
:1017A000CB018C509E4FAF4FBF4F6C010E94D505AF
:1017B0002B013C01A0E38A2EA5E79A2EA12CB12C87
:1017C000B2E02B2E312C0E94D50564197509C61A7A
:1017D000D70ACB01072E000CAA0BBB0B881A990A5B
:1017E000AA0ABB0AFFE36F2EF2E07F2ED301EBE4DF
:1017F000F2E080819181803727E1920724F41196ED
:101800003C922E920DC080343FE1930734F421E0E6
:1018100030E011963C932E9303C011961C921E92B9
:10182000861B970B97FF02C080E89EE3918380831D
:101830003296129692E0E735F907D9F6D7FE24C022
:1018400080913D0290913E028431910574F49C0197
:101850002F5F3F4F30933E0220933D02880F991F28
:10186000FC01EB5EFD4F118210820E94D11328EE25
:1018700033E040E050E00E941114DC01CB018C50B9
:101880009E4FAF4FBF4F6C010E94BF0780913D023A
:1018900090913E029C012150310910911402FC01EB
:1018A000EE0FFF1FEB5EFD4F37FD4FC0529142918F
:1018B0004133510591F4A5E1B2E041E050E0481711
:1018C00059074CF412966D917C9113976D937D930B
:1018D0004F5F5F4FF4CF019732C069E2462E61E05F
:1018E000562E0FE312E04F5F5F4FD2016D917D9155
:1018F0002D016417750761F4D801ED90FC90B2E0FA
:10190000EB16F10429F410E02115310569F41AC031
:101910000E5F1F4F65E3461661E0560631F7BA01C8
:101920002115310551F011E0DF0112974D915C91C5
:101930004617570731F0112329F07183608311E0B6
:1019400001C010E021503109AFCF90933E02809347
:101950003D02109314029C0121503109880F991FF8
:1019600040E050E0AFEF37FD17C0FA01E80FF91F74
:10197000ED5EFD4F0190F081E02DBF01660F771FF6
:10198000E60FF71FED59FE4FA083A183A2832150DC
:10199000310942505109E7CFE9E2F1E0D3014D911D
:1019A0005D913D014115510511F02AE001C020E88B
:1019B00081919191DC01AA0FBB1FA80FB91FAD59EE
:1019C000BE4F1C9211962C93119712961C92413087
:1019D000510511F01AE001C01FEF9C012F5F3F4F2E
:1019E000B901660F771F260F371FD901AD59BE4FBA
:1019F0001C9311961C93119712961C92423051051C
:101A000011F04AE001C04FEF02969C01220F331FF4
:101A1000820F931FDC01AD59BE4F4C9311961C925F
:101A2000119712961C92BBE46B16B2E07B0609F08C
:101A3000B5CF0E94D5052B013C016DE770E080E039
:101A400090E00E945509181419041A041B040CF4A0
:101A5000BACE0E94F807E4E08E9FC001112408E08E
:101A6000090F10E0E12CF12C0E94F807C82E0E940B
:101A7000F807D82E0E94F8074C2D50E06D2D70E02D
:101A800090E00E944007FFEFEF1AFF0AE016F10610
:101A90005CF340E050E060E070E080E090E00E94A5
:101AA00040070091ED021091EE0201151105B1F011
:101AB000D80112968D919C911397009759F01D961D
:101AC0006D917C911E979B01220F331F620F731F34
:101AD0000E94F909F80104811581E7CF0E943808B6
:101AE0006BE0CE0101960E94810989818093630198
:101AF0008A81809364018B81809365010E943808FC
:101B00006DE471E080E090E00E9455090E94CC07EE
:101B10000E9438086DE471E080E090E00E94550971
:101B20000E94CC070E9438086DE471E080E090E0EC
:101B30000E9455090E94CC076FE0CE0101960E94D9
:101B400081098981809363018A81809364018B81FB
:101B5000809365010E9438086DE471E080E090E0B8
:101B60000E9455090E94CC070E9438086DE471E07C
:101B700080E090E00E9455090E94CC070E9438083E
:101B80006DE471E080E090E00E945509AA24A394DE
:101B9000B12C02E010E07DE1772EE3E08E2E912C57
:101BA000709EC001719E900D1124D82E092E000C3C
:101BB000AA0BBB0BC92EE12CF12CDAA2CBA21CA2E2
:101BC0001DA20E94CC076D2DCE0101960E948109B5
:101BD0008981809363018A81809364018B818093E2
:101BE00065010E9438086DE471E080E090E00E9499
:101BF0005509FFEFEF1AFF0AE016F106F1F6C801EA
:101C0000B4010E9449136B012FEFC21AD20AE12CD2
:101C1000F12CCE14DF0474F00E94CC070E94380827
:101C20006DE471E080E090E00E9455093FEFE31A17
:101C3000F30AEFCFC501800F911F58018233910540
:101C400014F48C01ADCF02E310E00E94CC070E9497
:101C500038086DE471E080E090E00E945509015081
:101C6000110999F70E94F8076FEF869FC0011124B0
:101C70009AA7792F770F770F770F79A753E6C52E9D
:101C800051E0D52EDFA2CEA2612C712C9AA59074C2
:101C900098A7AAA5A072AA2E0E94D11319A525E57E
:101CA000129F010E10E0111D11243AA537FD27C027
:101CB000A8A5A1110CC0A11004C0212F2095012FAF
:101CC00014C005E5010FB8A5F12C1BEA3DC0A11019
:101CD00012C029A53AEA239F020E20E0211D1124FB
:101CE000ABEAA21B2A2F0AEA010F122F222309F4C2
:101CF00033C0F12C29C0B0E0012F009571C4E8A5D4
:101D0000E11111C0A1100BC019A52AEA129F010E02
:101D100010E0111D11240BEA011B1B5A61C438A5E8
:101D2000F12EF0940EC0A11005C025E5210F4BEA5D
:101D3000F42E05C02AEA210FA0E035E5F32EF11AB2
:101D4000122F00E0112389F026E9129F010E10E006
:101D5000111D002351F004C0002309F444C4F12CE8
:101D600036E9039F000E00E0011DFF2039F02F2D02
:101D700036E9239F020E20E0211DF22E2DEC30E0EB
:101D800040E050E00E9411146E5C7F4F8F4F9F4FD8
:101D9000112429E6229F020E20E0211D1124120F9A
:101DA000020F422F4F0D6F3F09F420C020E0662341
:101DB00021F0669F212D09F02F5F2223A1F011232E
:101DC00021F0129F010E10E0111D002321F0029F4F
:101DD000000E00E0011D442321F0429F040E40E06C
:101DE000411D112403C040E000E010E0AEA1BFA1FE
:101DF0001C93F301ED59FE4F018342831C91E02EA9
:101E0000101708F4E12E4E1508F4E42E1E190E19D1
:101E1000F42EFE18BE2CB094BFEFBB1639F080E054
:101E20009FEF9B190E940E07B82EB094802F90E070
:101E3000810F911D8F0D911D892B29F49B2D90955C
:101E4000B12C00E0FBC0EFEFBE16E9F0B11002C00C
:101E5000BB24B3942B2D30E040E050E06FEF7FEFD8
:101E600080E090E00E941114A12FB0E00E94301495
:101E7000172FA02FB0E00E943014072FAF2DB0E035
:101E80000E943014F72E802E912C810E911C8F0C05
:101E9000911CFFEF8F169104FCF48114910419F446
:101EA00088248394912C940140E050E06FEF7FEF01
:101EB00080E090E00E941114A12FB0E00E94301445
:101EC000172FA02FB0E00E943014072FAF2DB0E0E5
:101ED0000E943014F72E05C02FEF8216910409F0EE
:101EE0006CF43E2D682D360F08F43FEF932F3F3FE3
:101EF00031F080E00E940E07982F01C09FEF802FE5
:101F00000F1508F48F2D811708F4812F81132DC030
:101F100001110DC0082F20E8021B08F400E020E6A4
:101F2000029F000E00E0011D1124005386C0202FE7
:101F300030E0482F50E0421B530B241735073CF488
:101F400020E6029F000E00E0011D112476C00A5A0F
:101F5000081B24E0021B08F400E020E6029F000EAC
:101F600000E0011D1124005E68C080133AC0F1102A
:101F700019C02BEA211B08F420E03FE2239F020E48
:101F800020E0211D1124082F7BEA071B08F400E044
:101F900030E6039F000E00E0011D1124020F06959C
:101FA000005C4BC02F2D30E0082F10E0021B130BFC
:101FB000201731074CF40F2D20E6029F000E00E0A1
:101FC000011D1124005A39C00F2D25E5021B08F40C
:101FD00000E020E3029F000E00E0011D11240058E4
:101FE0002CC011110DC00F2D20E8021B08F400E0D9
:101FF00020E3029F000E00E0011D112408571DC0C0
:10200000412F50E02F2D30E0241B350B012F4217BC
:10201000530744F420E6029F000E00E0011D112446
:1020200000560BC035E5031B08F400E020E6029FD4
:10203000000E00E0011D112400540F5FF301E95A66
:10204000FD4F0083B182928363E0660E711C8EA106
:102050009FA103969FA38EA396E96916710409F0C8
:102060001BCE0E94380817E5A12E12E0B12E0CE518
:1020700012E088E6E82E81E0F82E93E6892E91E0C2
:10208000992E20E0C8010397DC014C91F8013081C2
:10209000341708F045C0D5016C91980124503109DE
:1020A000F90150813801F2E06F1A7108D3017C9177
:1020B000F5017083F8017291D9017C93D8012C91BC
:1020C000DC012C93D3016C935083F8014083D4013D
:1020D0006C91970124503109F9015081C701039790
:1020E000DC014C913701B2E06B1A7108F301708189
:1020F000D4017C93F7017291D9017C93D7012C9183
:10210000DC012C93D3016C935083F70140830E9430
:1021100038086AEF70E080E090E00E94550921E005
:10212000F3E0AF0EB11C0D5F1F4F33E0830E911C27
:1021300063E0E60EF11C7AEEA71672E0B70609F02E
:10214000A1CF211190CF0E94BF07F12CE5E6F1E06D
:1021500000E010E000FD06C0DF011297FC9211962E
:10216000FC92F0820F5F1F4F33960233110591F7F7
:102170000E94380864E670E080E090E00E94550913
:10218000F3948FEFF812E2CF64EF71E080E090E01B
:102190000E945509F0926301F0926401109265016A
:1021A0000E94380864E670E080E090E00E945509E3
:1021B000F0926601F0926701109268010E9438085F
:1021C00064E670E080E090E00E945509BBE6EB2EEB
:1021D000B1E0FB2E77247A94F7013597708231961F
:1021E000708231961082470192E0891A9108D401D9
:1021F0007C92F70172925F01D7011C92F701389728
:10220000108231961082319610820E94380864E65E
:1022100070E080E090E00E945509F4011082D50141
:102220001C92F70110820E94380864E670E080E09A
:1022300090E00E945509F3E0EF0EF11C2BEFE2163F
:1022400021E0F20649F61092F3011092F401109287
:10225000F5010E94380864E670E080E090E00E949A
:1022600055091092F6011092F7011092F8010E94A0
:10227000380864E670E080E090E00E94550968EE5E
:1022800073E080E090E00E94550999EFE92E91E01B
:10229000F92E22242A9420E6B22E30E2A32E47E81B
:1022A000942E5EEC852E6BEE762E70E8672EECECAD
:1022B0005E2EF5E54F2EA3E33A2E80E090E09801E4
:1022C0002233310530F4F701E80FF91F1082118233
:1022D00012822F5F3F4F03968C33910589F70233AB
:1022E000110540F4D7012C92F601E956FF4F2082E8
:1022F00031961082C8010196C29740F4F601E75664
:10230000FF4F20823196208231961082C8010596B7
:10231000C29740F4F601EB55FF4FB0823196A08290
:1023200031961082C8010696C29740F4F601E8552E
:10233000FF4FB0823196A08231961082C80141963B
:10234000C29740F4F601E753FF4F908231968082A6
:1023500031967082C8014296C29740F4F601E45368
:10236000FF4F90823196808231967082C8010D961F
:10237000C29740F4F601E354FF4F60823196108219
:1023800031961082C8010E96C29740F4F601E054CF
:10239000FF4F60823196108231961082C8010996F3
:1023A000C29740F4F601EF54FF4F508231964082BD
:1023B00031963082C8010A96C29740F4F601EC5477
:1023C000FF4F508231964082319630820E94380809
:1023D00064E670E080E090E00E9455090233110548
:1023E00040F4F7011082F601E956FF4F1082319652
:1023F00010820E94380864E670E080E090E00E945D
:10240000550901501109F3E0EF1AF10823E0C21A4F
:10241000D1080C3E3FEF130709F04FCF68EE73E091
:1024200080E090E00E9455098FEF9FEF9A838983A7
:102430008BEF9FEF9C838B8387EF9FEF9E838D8332
:1024400083EF9FEF98878F831DA21CA21BA21AA265
:10245000A12CB12C0BED1FEFCC24CA941E0169E016
:10246000260E311C89EAD82E552453940E94BF07AA
:10247000A0FE05C07BE840E06FEF5FEF04C07FEF98
:102480004FEF6BE850E0CE0182964C01DE011196D1
:102490007D019C01F90181919F01882301F18D91BA
:1024A0009C9111978233910550F4FC01EE0FFF1FB0
:1024B000E80FF91FED59FE4FD082D182D2820196EA
:1024C0008233910558F5FC01EE0FFF1F8E0F9F1F01
:1024D000FC01ED59FE4FD082D182D2821FC08D9176
:1024E0009C9111978233910550F4FC01EE0FFF1F70
:1024F000E80FF91FED59FE4F508351836283019617
:102500008233910558F4FC01EE0FFF1F8E0F9F1FC1
:10251000FC01ED59FE4F4083418372831296A21550
:10252000B30509F0B7CF0233110550F4F801EE0FEF
:10253000FF1FE00FF11FED59FE4FC082C1821282D2
:102540003801FFEF6F1A7F0A22E36216710450F41C
:10255000F301EE0FFF1FE60DF71DED59FE4F40830F
:10256000418312820E94380864E670E080E090E0C7
:102570000E9455093FEFA31AB30AA0FE83019801F8
:102580002F5F3F4FA50143705527D4018C91F70170
:1025900081110EC0808191812817390711F45C9256
:1025A0000CC04115510549F401969183808305C003
:1025B00080819181019791838083FFEF8F1A9F0A19
:1025C00062E0E60EF11CE214F304F9F602331105A1
:1025D0000CF44CCF0E94E8070E9469010C94640B34
:1025E000F12E10E0B6CB102FF12CC8CBEFEEF2E0BD
:1025F0001382128288EE93E0A0E0B0E0848395839A
:10260000A683B78389E391E09183808385EC90E092
:102610009587848784EC90E09787868780EC90E0AC
:10262000918B808B81EC90E0938B828B82EC90E09D
:10263000958B848B86EC90E0978B868B118E128E17
:10264000138E148EECE8F3E0168217821086118642
:10265000128613861486158616861786108A118AA6
:10266000128A138A148A158AE4EDF3E08FEF8083CF
:1026700012821182148613868FEF9FEFDC0187830D
:102680009087A187B287E1EEF3E08BE0818313822C
:10269000089597FB072E16F4009407D077FD09D014
:1026A0000E94641307FC05D03EF4909581959F4FDE
:1026B0000895709561957F4F08950E944314B7FF68
:1026C0000895821B930B0895AA1BBB1B51E107C001
:1026D000AA1FBB1FA617B70710F0A61BB70B881FB2
:1026E000991F5A95A9F780959095BC01CD01089541
:1026F000EE0FFF1F0590F491E02D099481E090E02A
:10270000F8940C9452148F929F92AF92BF92CF92F2
:10271000DF92EF92FF92CF93DF93EC016881798192
:102720008A819B81611571058105910521F464E21F
:1027300079ED8BE597E02DE133EF41E050E00E9429
:10274000111449015A019B01AC01A7EAB1E40E94AE
:1027500030146B017C01ACEEB4EFA50194010E9432
:102760003E14DC01CB018C0D9D1DAE1DBF1DB7FFBE
:1027700003C00197A109B04888839983AA83BB83CA
:10278000BC01CD019F77DF91CF91FF90EF90DF905B
:10279000CF90BF90AF909F908F9008950E94831329
:1027A000089583E091E00E948313089560930301EC
:1027B0007093040180930501909306010895DB0155
:1027C0008F939F930E943014BF91AF91A29F800D71
:1027D000911DA39F900DB29F900D11240895A1E229
:1027E0001A2EAA1BBB1BFD010DC0AA1FBB1FEE1F8B
:1027F000FF1FA217B307E407F50720F0A21BB30BD6
:10280000E40BF50B661F771F881F991F1A9469F751
:1028100060957095809590959B01AC01BD01CF01AD
:102820000895052E97FB1EF400940E94281457FD6E
:1028300007D00E94EF1307FC03D04EF40C94281429
:1028400050954095309521953F4F4F4F5F4F0895DC
:1028500090958095709561957F4F8F4F9F4F08950C
:102860000E944314A59F900DB49F900DA49F800DCE
:10287000911D11240895B7FF0C9430140E94301458
:10288000821B930B0895A29FB001B39FC001A39F29
:10289000700D811D1124911DB29F700D811D112499
:0828A000911D0895F894FFCF8B
:1028A8003905080100000000000000D002D002D065
:1028B80002AC02A802A5020000000062021E021C6F
:1028C80002AC02A8021902890307000D00180020B3
:1028D8000027002C000000000000010D08C900A717
:1028E80000BB004701564D4450565F317C315F565E
:0828F8004D4450560D0A00008A
:00000001FF
