:100000000C9455000C947D000C947D000C947D00A4
:100010000C947D000C947D000C947D000C947D006C
:100020000C947D000C947D000C947D000C947D005C
:100030000C947D000C947D000C947D000C947D004C
:100040000C9477050C947D000C9477020C9451026B
:100050000C947D000C947D000C947D000C947D002C
:100060000C947D000C947D000000FF00002AD50058
:100070000055AB00007FAB0000ABAB0000D55600D5
:1000800000FF00002AD5000055AB0000AA56000072
:10009000FF000000D5002A00AB00550081007F0062
:1000A0005500AB002B00D500461211241FBECFEF28
:1000B000D8E0DEBFCDBF11E0A0E0B1E0EEE3F7E2B3
:1000C00002C005900D92A835B107D9F723E0A8E545
:1000D000B1E001C01D92AD3EB207E1F710E0C5E509
:1000E000D0E004C02197FE010E94C312C435D1079D
:1000F000C9F70E948F090C949D130C940000FC0119
:10010000918D828D981761F0828DDF01A80FB11D4E
:100110005D968C91928D9F5F9F73928F90E0089572
:100120008FEF9FEF0895FC01918D828D981731F02C
:10013000828DE80FF11D858D90E008958FEF9FEF80
:100140000895FC01918D228D892F90E0805C9F4F56
:10015000821B91098F739927089581EF92E00E9485
:10016000A10021E0892B09F420E0822F0895FC01F1
:10017000848DDF01A80FB11DA35ABF4F2C91848D30
:1001800090E001968F739927848FA689B7892C9365
:10019000A089B1898C9180648C93938D848D981300
:1001A00006C00288F389E02D80818F7D80830895C9
:1001B000EF92FF920F931F93CF93DF93EC0181E0B7
:1001C000888F9B8D8C8D981305C0E889F989808173
:1001D00085FD24C0F62E0B8D10E00F5F1F4F0F73AF
:1001E0001127E02E8C8DE8120CC00FB607FCFACF59
:1001F000E889F989808185FFF5CFCE010E94B7009B
:10020000F1CF8B8DFE01E80FF11DE35AFF4FF08215
:100210000B8FEA89FB898081806207C0EE89FF89A4
:100220006083E889F98980818064808381E090E03F
:10023000DF91CF911F910F91FF90EF900895CF9391
:10024000DF93EC01888D8823C9F0EA89FB898081DE
:1002500085FD05C0A889B9898C9186FD0FC00FB6B0
:1002600007FCF5CF808185FFF2CFA889B9898C91F1
:1002700085FFEDCFCE010E94B700E7CFDF91CF9190
:10028000089580E090E0892B29F00E94AD00811153
:100290000C9400000895EF92FF920F931F93CF9359
:1002A000DF93EC01909159019F5F292F27702093D4
:1002B000590190FF02C090E801C090E021FD9064D8
:1002C000247009F0906220E1290FFE013C967E0126
:1002D0008FE0E80EF11C00E011E06191662331F03F
:1002E00070E0C8010E9494126F5F01C060E0DF01FE
:1002F00014976C93322F369F030E30E0311D11247A
:10030000CF010797311103C0EC01188203C03150AF
:10031000EC013883662311F061506C93EE15FF05F4
:10032000E1F6DF91CF911F910F91FF90EF9008952B
:1003300080E991E00895539A08950F931F93CF9306
:10034000DF93CDB7DEB762970FB6F894DEBF0FBE6E
:10035000CDBF8C01F901DC011C968C917A836983F5
:100360005C834B835E834D8390819D8791819E87C3
:1003700092819F87813029F4CE0101960E944B0122
:1003800006C01C861B861A86198618861F8283E083
:10039000888B1A8A198AD801ED91FC910484F5851D
:1003A000E02DBE016F5F7F4FC801099562960FB6C1
:1003B000F894DEBF0FBECDBFDF91CF911F910F919B
:1003C00008950F931F93CF93DF93CDB7DEB7629756
:1003D0000FB6F894DEBF0FBECDBF8C01F901DC0172
:1003E0001C968C917A8369835C834B835E834D83F7
:1003F00090819D8791819E8792819F87813029F48A
:10040000CE0101960E944B0106C01C861B861A86EF
:10041000198618861F82188A1A8A198AD801ED91BE
:10042000FC910484F585E02DBE016F5F7F4FC8010C
:10043000099562960FB6F894DEBF0FBECDBFDF916F
:10044000CF911F910F91089580E090E00895FC01F5
:10045000858596850895CF93DF9300D000D000D096
:10046000CDB7DEB7AB011C821D821E82DC01ED918F
:10047000FC910190F081E02D19821A821B829E016D
:100480002F5F3F4FBE016C5F7F4F099526960FB6D9
:10049000F894DEBF0FBECDBFDF91CF9108950E94CB
:1004A000C9121F920F920FB60F9211242F933F93F0
:1004B0004F935F936F937F938F939F93AF93BF936C
:1004C000EF93FF9381EF92E00E94B700FF91EF91CD
:1004D000BF91AF919F918F917F916F915F914F915C
:1004E0003F912F910F900FBE0F901F9018951F9264
:1004F0000F920FB60F9211242F938F939F93EF9328
:10050000FF93E0910103F09102038081E0910703E2
:10051000F091080382FD12C0908180910A038F5FE1
:100520008F7320910B03821751F0E0910A03F0E0E2
:10053000EF50FD4F958F80930A0301C08081FF919A
:10054000EF919F918F912F910F900FBE0F901F9061
:1005500018958E3008F08E508770806480937C00F0
:1005600080917A00806480937A0080917A0086FD81
:10057000FCCF809178002091790090E0922B089533
:100580003FB7F89480915F0190916001A091610163
:10059000B091620126B5A89B05C02F3F19F00196C6
:1005A000A11DB11D3FBFBA2FA92F982F8827820FF9
:1005B000911DA11DB11DBC01CD0142E0660F771F49
:1005C000881F991F4A95D1F708958F929F92AF92F5
:1005D000BF92CF92DF92EF92FF926B017C010E945B
:1005E000C0024B015C01C114D104E104F104F1F03B
:1005F0000E94C002DC01CB0188199909AA09BB0934
:10060000883E9340A105B10570F321E0C21AD108DC
:10061000E108F10888EE880E83E0981EA11CB11C49
:10062000C114D104E104F10419F7DDCFFF90EF907C
:10063000DF90CF90BF90AF909F908F9008954F9292
:100640005F926F927F928F92AF92BF92CF92EF9212
:10065000FF920F931F93CF93DF933C01EB010E9416
:10066000C002F30127853089621B730B6A30710564
:10067000B0F3F894E881F9815BB158608BB1877F62
:100680008BB969859E81262F291B922F2E83BF84CB
:100690004A805B807C85FD84EE847F5FF394E394E5
:1006A0003F814885AA84CB841081D20120E0C32FEA
:1006B000022F322F3081112788943111390F08F41D
:1006C0003FEF9195889470FD130F1795889471FDF5
:1006D000130F1795889472FD130F1795889473FD67
:1006E000130F1795889474FD130F1795889475FD53
:1006F000130F1795889476FD130F1795889477FD3F
:10070000130F17958894232F7111212F960F122FF5
:10071000002C5BB900C000C017FF8BB931812227C4
:10072000889400C0002C8BB931113C0F00C0002C04
:100730005BB900C000C016FF8BB908F43FEFC1954C
:10074000889400C0002C8BB9F0FC230F00C0002C53
:100750005BB900C000C015FF8BB927958894F1FCE8
:10076000230F00C0002C8BB92795889400C0002C63
:100770005BB900C000C014FF8BB9F2FC230F2795B2
:10078000889400C0002C8BB9F3FC230F00C0002C10
:100790005BB900C000C013FF8BB927958894F4FCA7
:1007A000230F00C0002C8BB92795889400C0002C23
:1007B0005BB900C000C012FF8BB9F5FC230F279571
:1007C000889400C0002C8BB9F6FC230F00C0002CCD
:1007D0005BB900C000C011FF8BB927958894F7FC66
:1007E000230F00C0002C8BB92795889400C0002CE3
:1007F0005BB900C000C010FF8BB9132FF110122F8E
:10080000CA0D00C0002C8BB900C000C0002C5BB921
:1008100000C000C017FF8BB932812227889400C026
:10082000002C8BB93111340F00C0002C5BB900C013
:1008300000C016FF8BB908F43FEFEB0DF11D00C0AF
:10084000002C8BB9E0FC230F00C0002C5BB900C06A
:1008500000C015FF8BB927958894E1FC230F00C0D9
:10086000002C8BB92795889400C0002C5BB900C080
:1008700000C014FF8BB9E2FC230F2795889400C0B9
:10088000002C8BB9E3FC230F00C0002C5BB900C027
:1008900000C013FF8BB927958894E4FC230F00C098
:1008A000002C8BB92795889400C0002C5BB900C040
:1008B00000C012FF8BB9E5FC230F2795889400C078
:1008C000002C8BB9E6FC230F00C0002C5BB900C0E4
:1008D00000C011FF8BB927958894E7FC230F00C057
:1008E000002C8BB92795889400C0002C5BB900C000
:1008F00000C010FF8BB9132FE110122F419500C0DB
:10090000002C8BB94C0D00C000C05BB900C000C00A
:1009100017FF8BB930812227889400C0002C8BB937
:100920003111390F00C0002C5BB900C000C016FFA8
:100930008BB908F43FEF9195889400C0002C8BB9D7
:1009400070FD230F00C0002C5BB900C000C015FF74
:100950008BB92795889471FD230F00C0002C8BB9AB
:100960002795889400C0002C5BB900C000C014FF1C
:100970008BB972FD230F2795889400C0002C8BB98A
:1009800073FD230F00C0002C5BB900C000C013FF33
:100990008BB92795889474FD230F00C0002C8BB968
:1009A0002795889400C0002C5BB900C000C012FFDE
:1009B0008BB975FD230F2795889400C0002C8BB947
:1009C00076FD230F00C0002C5BB900C000C011FFF2
:1009D0008BB92795889477FD230F00C0002C8BB925
:1009E0002795889400C0002C5BB900C000C010FFA0
:1009F0008BB9132F7111122F960F00C0002C8BB9D9
:100A0000119709F086CE20EE31E0D2010E94A812A3
:100A1000DC01CB01F4E0B695A79597958795FA95FB
:100A2000D1F720E030E0A9016AE9469E412D569EAB
:100A3000400D511D1124840F951FA11DB11D893E2C
:100A400043E09407A105B10588F1885E9340A109B0
:100A5000B10942E0B695A795979587954A95D1F744
:100A600047E0849F212D949F200D311D112460911A
:100A7000580170E0860F971F820F931F40915B0112
:100A800050915C0160915D0170915E01292F3327C7
:100A9000420F531F611D711D40935B0150935C0118
:100AA00060935D0170935E018093580178940E9479
:100AB000C002F301708B6787DF91CF911F910F9177
:100AC000FF90EF90CF90BF90AF908F907F906F90FE
:100AD0005F904F9008952FB7F89460915B017091EB
:100AE0005C0180915D0190915E012FBF08951F927E
:100AF0000F920FB60F9211242F933F938F939F93D2
:100B0000AF93BF9380915B0190915C01A0915D01D7
:100B1000B0915E0130915A0123E0230F2D3720F46C
:100B20000196A11DB11D05C026E8230F0296A11D47
:100B3000B11D20935A0180935B0190935C01A093B7
:100B40005D01B0935E0180915F0190916001A09181
:100B50006101B09162010196A11DB11D80935F01F9
:100B600090936001A0936101B0936201BF91AF9136
:100B70009F918F913F912F910F900FBE0F901F90DB
:100B80001895BC018230910508F40895613E8EE10C
:100B9000780748F49B0195E0369527959A95E1F7FB
:100BA00048E0420F01C04FEF91E0242F30E0290FC1
:100BB000311D35952795229FF001239FF00DF00DF3
:100BC00011246E177F0718F44FEF420F05C02F3F17
:100BD000310539F091E0920F491738F78FEF890FFF
:100BE00008958FEF08957F928F929F92AF92BF9258
:100BF000CF92DF92EF92FF920F931F93CF93DF93E9
:100C0000EC018B017A018091630190E0C817D9074C
:100C100024F0CC24C394D12C03C0CC24CA94DC2C63
:100C20008091640190E00817190724F0AA24A39486
:100C3000B12C03C0AA24AA94BA2C8091650190E03B
:100C4000E816F90624F088248394912C03C08824A4
:100C50008A94982C4091630150E08091640190E067
:100C60002091650130E04C175D0729F04C0D5D1DAA
:100C70007724739402C0AE01712C8017910729F07C
:100C80008A0D9B1D7724739401C0C8012E153F0562
:100C900029F0280D391D7724739401C0970160E075
:100CA00070E0FB01ED59FE4F4083818322836D5F2D
:100CB0007F4F66397105A9F76EE170E080E090E042
:100CC0000E945A087110C6CFDF91CF911F910F91EA
:100CD000FF90EF90DF90CF90BF90AF909F908F905C
:100CE0007F90089583E691E0FC01E057FF4F20815B
:100CF0003396208332972081339620833297208148
:100D000033962083039720E0803D920769F7109285
:100D100063011092640110926501089580910001B1
:100D2000815080930001811114C042E050E064E5DD
:100D300071E081EF92E00E9428070E94A30768EE0D
:100D400073E080E090E00E945A0880E090E00E940A
:100D50009D138093D60308954F925F926F927F9276
:100D6000AF92BF92CF92DF92EF92FF920F931F93B9
:100D7000CF93DF93FC011082118212824423B9F1D8
:100D80008B01075F1F4F5C01EB012C96442E512C09
:100D9000612C712CD8011397CC90D8012D918D0125
:100DA000CC20F9F02223E9F0822F90E0A0E0B0E01F
:100DB0009C01AD012F5F3F4F4F4F5F4FC301B20109
:100DC0000E942A139B01AC01D12CE12CF12CC7010C
:100DD000B6016F5F7F4F8F4F9F4F0E942A13D5013F
:100DE0008C93BFEFAB1ABB0A0C171D0799F6CF0106
:100DF000DF91CF911F910F91FF90EF90DF90CF90F7
:100E0000BF90AF907F906F905F904F90089540910A
:100E100001015091020125E038E0429FC001439F4B
:100E2000900D529F900D1124875E994C9093020172
:100E300080930101890F089520E0DC0160FF03C069
:100E400001C02D932D936250E0F77040D0F70895C4
:100E5000CF92DF92EF92FF920F931F93CF93DF9386
:100E60006C017A018B01C0E0D0E0CE15DF0589F07E
:100E7000D8016D918D01D601ED91FC910190F08129
:100E8000E02DC6010995892B11F47E0102C021963F
:100E9000ECCFC701DF91CF911F910F91FF90EF90A1
:100EA000DF90CF900895CF92DF92EF92FF920F9351
:100EB0001F93CF93DF938091EB039091EC03EC01B0
:100EC0002196D093EC03C093EB0349979CF10E94C9
:100ED0006B058B019C0188EE93E0C89FB001C99F10
:100EE000700DD89F700D1124072E000C880B990BE4
:100EF000C090E703D090E803E090E903F090EA03A4
:100F0000A90198012C193D094E095F090E943A1365
:100F10003093D8032093D7031092EC031092EB0385
:100F20000E946B056093E7037093E8038093E903E5
:100F30009093EA03DF91CF911F910F91FF90EF9073
:100F4000DF90CF900895CF92DF92EF92FF920F93B0
:100F50001F93CF93DF9300D000D000D0CDB7DEB782
:100F60001C821D821E828091D9039091DA03A09188
:100F7000DB03B091DC03892B8A2B8B2BE9F00E94D9
:100F8000C0020091E3031091E4032091E503309146
:100F9000E603DC01CB01801B910BA20BB30B00918C
:100FA000D9031091DA032091DB033091DC03801721
:100FB0009107A207B307B8F20E94C0026093E3034F
:100FC0007093E4038093E5039093E603E091E103DB
:100FD000F091E203309709F45CC04091DD03509139
:100FE000DE036091DF037091E00380E00995F82E45
:100FF0000091EF021091F0020115110569F1D8017D
:101000001C96EC901C978091D7039091D80384365E
:10101000910510F41C961C92D801ED91FC91C080B2
:10102000D1804F2DB801CE0101960E94AC06F80187
:10103000458556859E012F5F3F4FBE016C5F7F4FF8
:10104000C801F6010995D8011C96EC921C971496DC
:101050000D911C911597D0CF0E9453070091EF027C
:101060001091F00201151105B1F0F8018281938110
:10107000009749F0658576859B01220F331F620F2B
:10108000731F0E941C07D80114960D911C9115978F
:10109000E9CFF12CADCF26960FB6F894DEBF0FBE88
:1010A000CDBFDF91CF911F910F91FF90EF90DF9017
:1010B000CF9008954F925F926F927F928F929F92FE
:1010C000AF92BF92CF92DF92EF92FF920F931F9356
:1010D000CF93DF9300D01F92CDB7DEB72B013C0139
:1010E0000E946B054B015C0161E070E080E090E0E4
:1010F0000E94E502F090D6038091D9039091DA0323
:10110000A091DB03B091DC03892B8A2B8B2BE9F0B8
:101110000E94C0020091E3031091E4032091E503D3
:101120003091E603DC01CB01801B910BA20BB30BCA
:101130000091D9031091DA032091DB033091DC0395
:1011400080179107A207B307B8F20E94C00260930C
:10115000E3037093E4038093E5039093E603E09147
:10116000E103F091E203309759F04091DD03509193
:10117000DE036091DF037091E0038F2D0995F82E57
:101180000091EF021091F0020115110561F1D801F3
:101190001C96EC901C978091D7039091D8038436CD
:1011A000910510F41C961C92D801ED91FC91C2801F
:1011B000D3804F2DB801CE0101960E94AC06F801F4
:1011C00045855685628173819E012F5F3F4FC8011F
:1011D000F6010995D8011C96EC921C9714960D9176
:1011E0001C911597D1CF0E9453070E946B05DC011B
:1011F000CB0188199909AA09BB0984159505A6058B
:10120000B70508F471CF0F900F900F90DF91CF9139
:101210001F910F91FF90EF90DF90CF90BF90AF9014
:101220009F908F907F906F905F904F9008954F9216
:101230005F926F927F928F929F92AF92BF92CF9266
:10124000DF92EF92FF921F93B62FB295BF70A62F39
:10125000AF702B2F30E0F901EE0FFF1FEE0FFF1FD5
:10126000E859FF4FC590D590E590F4904701AA2426
:10127000BB24782D4D2C5E2C6F2C7724542D4C2DB7
:10128000AA2309F432C0BF3009F041C0E8E6F0E01B
:101290004591559165917491E62F352F6A2F62958E
:1012A000607F162F1095582D519F050E50E0511D4F
:1012B0002E2F269F020E20E0211D752F720F542D18
:1012C000519F050E50E0511D232F269F020E20E056
:1012D000211D520F2C2D219F020E20E0211D469F23
:1012E000040E40E0411D420F1124FC017083518324
:1012F00042831F91FF90EF90DF90CF90BF90AF900F
:101300009F908F907F906F905F904F900895F9011C
:10131000EE0FFF1FEE0FFF1FE459FF4FB9CFCF9322
:10132000DF93CDB7DEB762970FB6F894DEBF0FBE7E
:10133000CDBF789484B5826084BD84B5816084BD5E
:1013400085B5826085BD85B5816085BD80916E0063
:10135000816080936E001092810080918100826094
:1013600080938100809181008160809381008091D1
:1013700080008160809380008091B10084608093C0
:10138000B1008091B00081608093B00080917A00BC
:10139000846080937A0080917A00826080937A00E2
:1013A00080917A00816080937A0080917A008068D1
:1013B00080937A001092C1001092D2031092D3034E
:1013C0001092D4031092D5031092900310929103BF
:1013D000109292031092930360ED77E080E090E02A
:1013E0000E94E50281EF92E09093D1038093D003B5
:1013F000E0910103F091020382E08083E091FD021D
:10140000F091FE021082E091FF02F091000380E172
:10141000808310920903E0910503F091060386E0B2
:101420008083E0910303F0910403808180618083D5
:10143000E0910303F0910403808188608083E09150
:101440000303F0910403808180688083E0910303AB
:10145000F091040380818F7D80830E946B056093EF
:1014600090037093910380939203909393038091E0
:10147000D0039091D103DC01ED91FC910280F381C6
:10148000E02D41E150E065E471E009956AE070E02B
:1014900080E090E00E94E50291E09093A4038091A7
:1014A0000C02811144C01092FE011092FD018FEFD9
:1014B00080930102809302028093030280930402CE
:1014C000809305028093060290930702109209020E
:1014D00010920802109200021092FF018091EF0218
:1014E0009091F002892B31F48BEF91E09093F00210
:1014F0008093EF02E091F901F091FA01309721F029
:101500008BEF91E0958384838BEF91E09093FA01C8
:101510008093F90110920B0210920A028BE191E084
:101520009093FC018093FB0181E080930C02E09199
:10153000FB01F091FC010480F581E02D8BEF91E03F
:10154000099583E691E09093FE018093FD0182E38B
:1015500090E09093090280930802E091FB01F091E2
:10156000FC010284F385E02D8BEF91E00995009753
:1015700029F19C0140E050E060E472E48FE090E0EB
:101580000E945C13722F632F0091D9031091DA032C
:101590002091DB033091DC03872F962FDA0180172F
:1015A0009107A207B30710F4D901C8018093D903AA
:1015B0009093DA03A093DB03B093DC0380E00E94F6
:1015C000A902892BF9F081E00E94A902892BD1F0B0
:1015D00082E00E94A902892BA9F083E00E94A9025F
:1015E000892B81F084E00E94A902892B59F085E0C3
:1015F0000E94A902892B31F061E070E080E090E068
:101600000E9421130E948E0684E090E09093EE02E7
:101610008093ED02FE013996FE87ED870E941C1330
:101620002091010130910201620F731F709302013A
:10163000609301010E940707F5E08F9FC00111240C
:10164000923009F4A1C120F4913009F474C106C0AC
:10165000933009F44CC2943009F4BEC40E94A3072D
:101660000BE412E00E941C1320E83EE340E050E04F
:101670000E945C13D8016D937D938D01B2E0073514
:101680001B0781F70E941C1328EE33E040E050E076
:101690000E945C13DC01CB018C509E4FAF4FBF4FBB
:1016A0006C010E946B052B013C01F0E38F2EF5E7E6
:1016B0009F2EA12CB12CA2E02A2E312C0E946B056A
:1016C00064197509C61AD70ACB01072E000CAA0B9C
:1016D000BB0B881A990AAA0ABB0AEFE36E2EE2E056
:1016E0007E2ED301EBE4F2E080819181803727E107
:1016F000920724F411963C922E920DC080343FE163
:10170000930734F421E030E011963C932E9303C00C
:1017100011961C921E92861B970B97FF02C080E8C1
:101720009EE3918380833296129692E0E735F90723
:10173000D9F6D7FE24C080913D0290913E028431BB
:10174000910574F49C012F5F3F4F30933E0220932C
:101750003D02880F991FFC01EB5EFD4F1182108244
:101760000E941C1328EE33E040E050E00E945C131E
:10177000DC01CB018C509E4FAF4FBF4F6C010E94DC
:10178000A30780913D0290913E029C0121503109B6
:1017900010911402FC01EE0FFF1FEB5EFD4F37FDB1
:1017A0004FC0529142914133510591F4A5E1B2E00D
:1017B00041E050E0481759074CF412966D917C9126
:1017C00013976D937D934F5F5F4FF4CF019732C0B6
:1017D00009E2402E01E0502E0FE312E04F5F5F4F11
:1017E000D2016D917D912D016417750761F4D801C7
:1017F000ED90FC90B2E0EB16F10429F410E0211515
:10180000310569F41AC00E5F1F4F65E3461661E0AB
:10181000560631F7BA012115310551F011E0DF010B
:1018200012974D915C914617570731F0112329F01B
:101830007183608311E001C010E021503109AFCF06
:1018400090933E0280933D02109314029C0121501C
:101850003109880F991F40E050E0AFEF37FD17C006
:10186000FA01E80FF91FED5EFD4F0190F081E02DC8
:10187000BF01660F771FE60FF71FED59FE4FA083DC
:10188000A183A2832150310942505109E7CFE9E2F7
:10189000F1E04FEF50E8D3018D919D913D018130F2
:1018A0009105A1F08230910501F1892B71F58081BC
:1018B00091819C01220F331F820F931FDC01AD59D0
:1018C000BE4F1C9211965C9311971DC0808191812F
:1018D0009C01220F331F820F931FDC01AD59BE4FB5
:1018E0004C9311964C9311970EC0808191819C016D
:1018F000220F331F820F931FDC01AD59BE4F4C9353
:1019000011961C92119712961C923296B1E0E53313
:10191000FB0709F60E946B052B013C016DE770E0A7
:1019200080E090E00E945A08181419041A041B045D
:101930000CF4C4CE8CC50E940707E4E08E9FC00162
:10194000112408E0090F10E0E12CF12C0E94070798
:10195000C82E0E940707D82E0E9407074C2D50E082
:101960006D2D70E090E00E94F305FFEFEF1AFF0A83
:10197000E016F1065CF340E050E060E070E080E0EB
:1019800090E00E94F30563C50E94A3076BE0CE01BF
:1019900001960E9417098981809363018A8180934F
:1019A00064018B81809365016DE471E080E090E0DB
:1019B0000E945A080E9472066DE471E080E090E097
:1019C0000E945A080E9472066DE471E080E090E087
:1019D0000E945A080E9472066FE0CE0101960E9492
:1019E00017098981809363018A81809364018B81C7
:1019F000809365016DE471E080E090E00E945A08F8
:101A00000E9472066DE471E080E090E00E945A0846
:101A10000E9472066DE471E080E090E00E945A0836
:101A2000AA24A394B12C02E010E08DE1782E93E07B
:101A3000892E912C709EC001719E900D1124D82E7C
:101A4000092E000CAA0BBB0BC92EE12CF12CD98658
:101A5000CA861B861C860E9472066D2DCE010196D9
:101A60000E9417098981809363018A8180936401B0
:101A70008B81809365016DE471E080E090E00E94CD
:101A80005A082FEFE21AF20AE016F10601F7C80130
:101A9000B4010E9494126B013FEFC31AD30AE12CE8
:101AA000F12CCE14DF0464F00E9472066DE471E044
:101AB00080E090E00E945A084FEFE41AF40AF1CF58
:101AC000C501800F911F58018233910514F48C01D8
:101AD000B1CF02E310E00E9472066DE471E080E095
:101AE00090E00E945A0801501109A9F7B0C40E9461
:101AF00007076FEF869FC00111249A8B892E880CEF
:101B0000880C880C83E691E0988B8F87612C712C70
:101B10009A899074998BAA89A072CA2EBBEA9B2ECF
:101B20000E941C13082D25E5029F000E00E0011DF8
:101B300011243A8937FD27C0498941110CC0C110D1
:101B400004C0202F2095102F14C015E5100FA9896F
:101B500020E00BEA3CC0C11012C0282D3AEA239FB6
:101B6000020E20E0211D1124492D421B242F1AEAC8
:101B7000100F022F222309F437C020E028C0A0E074
:101B8000302F30957AC4B989B11111C0C1100BC082
:101B9000082D2AEA029F000E00E0011D1124392DB4
:101BA000301B0B5A6AC43989202F20950CC0C110F4
:101BB00004C035E5300F292D04C03AEA300F40E06B
:101BC00025E5201B032F002309F45BC410E0302F10
:101BD00046E9349F030E30E0311DE32E012F002330
:101BE00071F0102F0E2D04C0112309F44CC420E015
:101BF00036E9139F010E10E0111DE02E012F222364
:101C000039F0122F46E9149F010E10E0111D01C09A
:101C100010E02DEC30E040E050E00E945C136E5C80
:101C20007F4F8F4F9F4F112429E6229F020E20E005
:101C3000211D1124422F4E0D020F210F6F3F09F479
:101C400020C030E0662321F0669F312D09F03F5F10
:101C50003323A1F0442321F0439F040E40E0411DB3
:101C6000002321F0039F000E00E0011D222321F03C
:101C7000239F020E20E0211D112403C020E000E07C
:101C800040E0AF85B8894C93F301ED59FE4F0183D5
:101C900022831C91E02E101708F4E12E2E1508F473
:101CA000E22E1E190E19F22EFE18DE2CD094BFEF74
:101CB000DB1639F080E09FEF9D190E94C105D82EF8
:101CC000D094802F90E0810F911D8F0D911D892B55
:101CD00029F49D2D9095D12C00E0FBC0EFEFDE168E
:101CE000E9F0D11002C0DD24D3942D2D30E040E086
:101CF00050E06FEF7FEF80E090E00E945C13A12F37
:101D0000B0E00E947B13172FA02FB0E00E947B133E
:101D1000072FAF2DB0E00E947B13F72EA02EB12C21
:101D2000A10EB11CAF0CB11CFFEFAF16B104FCF457
:101D3000A114B10419F4AA24A394B12C950140E094
:101D400050E06FEF7FEF80E090E00E945C13A12FE6
:101D5000B0E00E947B13172FA02FB0E00E947B13EE
:101D6000072FAF2DB0E00E947B13F72E05C02FEF99
:101D7000A216B10409F06CF43E2D4A2D340F08F47C
:101D80003FEF932F3F3F31F080E00E94C105982F35
:101D900001C09FEF802F0F1508F48F2D811708F4D5
:101DA000812F81132DC001110DC0082F20E8021BC7
:101DB00008F400E020E6029F000E00E0011D11245F
:101DC000005386C0202F30E0482F50E0421B530BB9
:101DD000241735073CF420E6029F000E00E0011DA9
:101DE000112476C00A5A081B24E0021B08F400E004
:101DF00020E6029F000E00E0011D1124005E68C075
:101E000080133AC0F11019C0292D211B08F420E0DD
:101E10003FE2239F020E20E0211D1124082F692D8F
:101E2000061B08F400E030E6039F000E00E0011DF1
:101E30001124020F0695005C4BC02F2D30E0082FB7
:101E400010E0021B130B201731074CF40F2D20E676
:101E5000029F000E00E0011D1124005A39C00F2D11
:101E600075E5071B08F400E020E3029F000E00E088
:101E7000011D112400582CC011110DC00F2D20E898
:101E8000021B08F400E020E3029F000E00E0011DA9
:101E9000112408571DC0412F50E02F2D30E0241B86
:101EA000350B012F4217530744F420E6029F000E22
:101EB00000E0011D112400560BC025E5021B08F4AB
:101EC00000E020E6029F000E00E0011D11240054F6
:101ED0000F5FF301E95AFD4F0083D182928333E013
:101EE000630E711C6F8578896D5F7F4F788B6F876C
:101EF00076E96716710409F013CE77E5C72E72E014
:101F0000D72E0CE512E0E8E6EE2EE1E0FE2EF3E639
:101F1000AF2EF1E0BF2E20E0C8010397DC014C9109
:101F2000F8013081341708F043C0D6016C91980154
:101F300024503109F90150814801F2E08F1A9108CB
:101F4000D4017C91F6017083F8017291D9017C93E0
:101F5000D8012C91DC012C93D4016C935083F801AF
:101F60004083D5016C91970124503109F9015081CA
:101F7000C7010397DC014C914701B2E08B1A91082D
:101F8000F4017081D5017C93F7017291D9017C93A2
:101F9000D7012C91DC012C93D4016C935083F70171
:101FA00040836AEF70E080E090E00E945A0821E0F0
:101FB000F3E0CF0ED11C0D5F1F4F33E0A30EB11C19
:101FC00043E0E40EF11C6AEEC61662E0D60609F0A4
:101FD000A3CF211192CF3BC20E94A30710E0E5E6F8
:101FE000F1E0E12CF12CE0FC06C0DF0112971C931C
:101FF00011961C9310837FEFE71AF70A339682E35A
:10200000E816F10481F764E670E080E090E00E9459
:102010005A081F5F1F3F19F764EF71E080E090E0FE
:102020000E945A0810936301109364011092650195
:1020300064E670E080E090E00E945A081093660128
:10204000109367011092680164E670E080E090E010
:102050000E945A086BE6A62E61E0B62E99249A9447
:10206000F501359790823196908231961082650104
:1020700092E0C91AD108D6019C92F50192928F0183
:10208000D5011C92F5013897108231961082319655
:10209000108264E670E080E090E00E945A08F60149
:1020A0001082D8011C92F501108264E670E080E095
:1020B00090E00E945A08F3E0AF0EB11C2BEFA2167D
:1020C00021E0B20669F61092F3011092F401109229
:1020D000F50164E670E080E090E00E945A081092FA
:1020E000F6011092F7011092F80164E670E080E0CA
:1020F00090E00E945A0868EE73E080E090E00E9451
:102100005A08E9EFCE2EE1E0DE2E03E611E02224AC
:102110002A94F0E6BF2EA0E2AA2EB7E89B2E8EEC02
:10212000882E9BEE792E20E8622E3CEC532E45E55E
:10213000442E53E3352E970180E090E022333105A1
:1021400030F4F601E80FF91F1082118212822F5F1E
:102150003F4F03968C33910589F732E3E316F10480
:1021600040F4D6012C92F801E956FF4F20823196B7
:102170001082C7010196C29740F4F801E756FF4F5D
:1021800020823196208231961082C7010596C2972F
:1021900040F4F801EB55FF4FB0823196A0823196A2
:1021A0001082C7010696C29740F4F801E855FF4F28
:1021B000B0823196A08231961082C7014196C297B3
:1021C00040F4F801E753FF4F9082319680823196B8
:1021D0007082C7014296C29740F4F801E453FF4F62
:1021E00090823196808231967082C7010D96C29797
:1021F00040F4F801E354FF4F60823196108231962B
:102200001082C7010E96C29740F4F801E054FF4FC8
:1022100060823196108231961082C7010996C2976A
:1022200040F4F801EF54FF4F5082319640823196CE
:102230003082C7010A96C29740F4F801EC54FF4F70
:102240005082319640823196308264E670E080E0C0
:1022500090E00E945A08B2E3EB16F10440F4F60154
:102260001082F801E956FF4F10823196108264E621
:1022700070E080E090E00E945A08F1E0EF1AF10867
:1022800023E0C21AD108035011093CEEE3163FEFD8
:10229000F30609F050CF68EE73E080E090E00E9412
:1022A0005A088FEF9FEF9A8389838BEF9FEF9C8370
:1022B0008B8387EF9FEF9E838D8383EF9FEF9887BC
:1022C0008F831C861B861A861986812C912C0BED18
:1022D0001FEFDD24DA9479EAC72E552453940E9427
:1022E000A30780FE05C05BE820E04FEF3FEF04C08E
:1022F0005FEF2FEF4BE830E0BE01675F7F4F3B01A0
:10230000CE0101967C01DC015B01F50181915F0149
:10231000882301F18D919C9111978233910550F49E
:10232000FC01EE0FFF1FE80FF91FED59FE4FC082B1
:10233000C182C28201968233910558F5BC01660FB5
:10234000771F860F971FFC01ED59FE4FC082C18297
:10235000C2821FC08D919C9111978233910550F4D8
:10236000FC01EE0FFF1FE80FF91FED59FE4F308300
:102370003183428301968233910558F4BC01660F84
:10238000771F860F971FFC01ED59FE4F2083218395
:10239000528312966D857E85A617B70709F0B5CFD3
:1023A0000233110550F4F801EE0FFF1FE00FF11F8B
:1023B000ED59FE4FD082D182128258017FEFA71AC9
:1023C000B70A82E3A816B10450F4F501EE0FFF1F1F
:1023D000EA0DFB1DED59FE4F20832183128264E636
:1023E00070E080E090E00E945A089FEF891A990AF5
:1023F00080FE850198012F5F3F4FA4014370552750
:10240000D3018C91F70181110EC080819181281731
:10241000390711F45C920CC04115510549F401963D
:102420009183808305C0808191810197918380830E
:10243000FFEF6F1A7F0A62E0E60EF11C8D859E8524
:10244000E816F906E9F6023311050CF448CF80913D
:10245000ED029091EE02019729F09093EE028093A5
:10246000ED0208C084E090E09093EE028093ED02CC
:102470000E948E060E944101D1C8202F032FE12C1B
:10248000AECBE12CBCCBE12C012FC3CBE1EFF2E0D2
:102490001382128288EE93E0A0E0B0E084839583FB
:1024A000A683B78389E391E09183808385EC90E0F4
:1024B0009587848784EC90E09787868780EC90E00E
:1024C000918B808B81EC90E0938B828B82EC90E0FF
:1024D000958B848B86EC90E0978B868B118E128E79
:1024E000138E148EEEE8F3E01682178210861186A2
:1024F000128613861486158616861786108A118A08
:10250000128A138A148A158AE6EDF3E08FEF80832E
:1025100012821182148613868FEF9FEFDC0187836E
:102520009087A187B287089597FB072E16F4009431
:1025300007D077FD09D00E94AF1207FC05D03EF40A
:10254000909581959F4F0895709561957F4F08955F
:102550000E948E13B7FF0895821B930B0895AA1B48
:10256000BB1B51E107C0AA1FBB1FA617B70710F07E
:10257000A61BB70B881F991F5A95A9F780959095B0
:10258000BC01CD010895EE0FFF1F0590F491E02DE1
:10259000099481E090E0F8940C949D138F929F929F
:1025A000AF92BF92CF92DF92EF92FF92CF93DF93E1
:1025B000EC01688179818A819B81611571058105B2
:1025C000910521F464E279ED8BE597E02DE133EF9D
:1025D00041E050E00E945C1349015A019B01AC01AB
:1025E000A7EAB1E40E947B136B017C01ACEEB4EF6F
:1025F000A50194010E948913DC01CB018C0D9D1D66
:10260000AE1DBF1DB7FF03C00197A109B048888365
:102610009983AA83BB83BC01CD019F77DF91CF91C2
:10262000FF90EF90DF90CF90BF90AF909F908F90F2
:1026300008950E94CE12089583E091E00E94CE1288
:1026400008956093030170930401809305019093B2
:1026500006010895DB018F939F930E947B13BF9126
:10266000AF91A29F800D911DA39F900DB29F900DE1
:1026700011240895A1E21A2EAA1BBB1BFD010DC057
:10268000AA1FBB1FEE1FFF1FA217B307E407F50722
:1026900020F0A21BB30BE40BF50B661F771F881FFE
:1026A000991F1A9469F760957095809590959B0194
:1026B000AC01BD01CF010895052E97FB1EF40094D7
:1026C0000E94731357FD07D00E943A1307FC03D0F2
:1026D0004EF40C94731350954095309521953F4FCF
:1026E0004F4F5F4F089590958095709561957F4FFE
:1026F0008F4F9F4F08950E948E13A59F900DB49FFA
:10270000900DA49F800D911D11240895B7FF0C9486
:102710007B130E947B13821B930B0895A29FB00131
:10272000B39FC001A39F700D811D1124911DB29F05
:0E273000700D811D1124911D0895F894FFCFA6
:10273E0008390501000000000000004F024F024F53
:10274E00022B022702240200000000E1019D019BE2
:10275E00012B02270298011F0307000D001800200D
:10276E000027002C0000000000D8002807A1007FE1
:10277E000093001F01564D4450565F317C315F5619
:08278E004D4450560D0A0000F5
:107E0000112484B714BE81FFF0D085E080938100F7
:107E100082E08093C00088E18093C10086E0809377
:107E2000C20080E18093C4008EE0C9D0259A86E02C
:107E300020E33CEF91E0309385002093840096BBD3
:107E4000B09BFECF1D9AA8958150A9F7CC24DD24C4
:107E500088248394B5E0AB2EA1E19A2EF3E0BF2EE7
:107E6000A2D0813461F49FD0082FAFD0023811F036
:107E7000013811F484E001C083E08DD089C08234E0
:107E800011F484E103C0853419F485E0A6D080C0E4
:107E9000853579F488D0E82EFF2485D0082F10E0AE
:107EA000102F00270E291F29000F111F8ED06801E7
:107EB0006FC0863521F484E090D080E0DECF843638
:107EC00009F040C070D06FD0082F6DD080E0C81688
:107ED00080E7D80618F4F601B7BEE895C0E0D1E017
:107EE00062D089930C17E1F7F0E0CF16F0E7DF06D8
:107EF00018F0F601B7BEE89568D007B600FCFDCFD4
:107F0000A601A0E0B1E02C9130E011968C91119780
:107F100090E0982F8827822B932B1296FA010C0160
:107F200087BEE89511244E5F5F4FF1E0A038BF0790
:107F300051F7F601A7BEE89507B600FCFDCF97BE46
:107F4000E89526C08437B1F42ED02DD0F82E2BD052
:107F50003CD0F601EF2C8F010F5F1F4F84911BD097
:107F6000EA94F801C1F70894C11CD11CFA94CF0C13
:107F7000D11C0EC0853739F428D08EE10CD085E9AC
:107F80000AD08FE07ACF813511F488E018D01DD067
:107F900080E101D065CF982F8091C00085FFFCCF94
:107FA0009093C60008958091C00087FFFCCF809118
:107FB000C00084FD01C0A8958091C6000895E0E648
:107FC000F0E098E1908380830895EDDF803219F02E
:107FD00088E0F5DFFFCF84E1DECF1F93182FE3DFCA
:107FE0001150E9F7F2DF1F91089580E0E8DFEE27F6
:047FF000FF270994CA
:027FFE00040479
:0400000300007E007B
:00000001FF